:1000000014C02EC02DC02CC02BC02AC07EC028C05A
:1000100027C026C025C024C023C022C021C020C0C4
:100020001FC01EC01DC01CC01BC011241FBECFE5B9
:10003000D1E0DEBFCDBF10E0A0E6B0E0ECE3F4E03D
:1000400002C005900D92AA36B107D9F720E0AAE6C2
:10005000B0E001C01D92A838B207E1F7F0D0ECC1C2
:10006000CFCF8130910569F01CF4892B39F00895C8
:100070008230910541F0039741F0089581E088BBFB
:10008000089582E0FCCF84E0FACF88E0F8CF21E049
:1000900030E030936B0020936A001092870010923A
:1000A000860012BE20916A0030916B002115310547
:1000B00029F410926B0010926A0008954091860016
:1000C000509187004817590789F730E020E0EECFBC
:1000D000FF920F931F93CF93DF938C01D0E0C0E08A
:1000E0008FE0F82EC017D10734F0DF91CF911F9128
:1000F0000F91FF900895F8BA84EF91E0C8DF18BA25
:1001000084EF91E0C4DF2196EDCF1F920F920FB6DE
:100110000F9211248F939F9380916A0090916B00AE
:10012000892B49F0809186009091870001969093E9
:100130008700809386009F918F910F900FBE0F9044
:100140001F9018950F931F93CF93DF930CE610E049
:10015000D0E0C0E0809162009091630002968C171D
:100160009D0734F418BADF91CF911F910F91089534
:10017000F801819191918F0174DF809162009091DB
:10018000630068E37FEF70D08856974F80DF18BA1E
:1001900088EC90E07CDF2196DDCF0F931F93CF9307
:1001A000DF938091640090916500E4D0CCE6D0E0CC
:1001B00004E010E0DBD0B80168D08993999380E027
:1001C000C638D807B9F7DF91CF911F910F910895E5
:1001D000809160009091610082309105A1F01CF443
:1001E000019739F0089583309105A9F0049709F13A
:1001F000089582E090E06CDF82E090E090936100EF
:1002000080936000CACF9EDF83E090E0909361000E
:100210008093600008958091620090916300019640
:1002200090936300809362000E9731F082E090E03B
:10023000EDCF83E090E04CDF81E090E0E7CF1092DB
:1002400087001092860012BE10BE83E083BF82E05A
:1002500089BF9FE097BB98ED9BBF84B985B98AE0C1
:1002600085BF7894B5DFFECF0024552704C0080E63
:10027000591F880F991F009729F076956795B8F355
:100280007105B9F7802D952F089597FB072E16F469
:10029000009406D077FD08D00BD007FC05D03EF4C3
:1002A000909581959F4F0895709561957F4F089522
:1002B000AA1BBB1B51E107C0AA1FBB1FA617B7078C
:1002C00010F0A61BB70B881F991F5A95A9F78095A8
:1002D0009095BC01CD0108958F929F92AF92BF92ED
:1002E000CF92DF92EF92FF92CF93DF93EC01688180
:1002F00079818A819B81611571058105910521F4C0
:1003000064E279ED8BE597E02DE133EF41E050E0D9
:1003100055D049015A0127EA31E440E050E035D098
:100320006B017C012CEE34EF4FEF5FEFC501B401A0
:100330002CD0DC01CB018C0D9D1DAE1DBF1DB7FF68
:1003400003C00197A109B04888839983AA83BB831E
:100350009F77DF91CF91FF90EF90DF90CF90BF908C
:10036000AF909F908F900895B7DF089586E690E054
:10037000B3DF0895B0E0A0E080936600909367003B
:10038000A0936800B09369000895EE27FF27AA277D
:10039000BB2708C0A20FB31FE41FF51F220F331F96
:1003A000441F551F969587957795679598F37040EC
:1003B000A9F7009799F7BD01CF010895052E97FB86
:1003C00016F400940FD057FD05D014D007FC02D0CE
:1003D00046F408C050954095309521953F4F4F4FBA
:1003E0005F4F089590958095709561957F4F8F4FE1
:1003F0009F4F0895A1E21A2EAA1BBB1BFD010DC041
:10040000AA1FBB1FEE1FFF1FA217B307E407F507C4
:1004100020F0A21BB30BE40BF50B661F771F881FA0
:10042000991F1A9469F760957095809590959B0136
:0C043000AC01BD01CF010895F894FFCF8E
:0A043C00010001008900010000002A
:00000001FF
