:1000000014C023C022C021C020C01FC073C01DC0A7
:100010001CC01BC01AC019C018C017C016C015C01C
:1000200014C013C012C011C010C011241FBECFE5F0
:10003000D1E0DEBFCDBF20E0A0E6B0E001C01D9260
:10004000A436B207E1F782D0ACC0DACF8130910597
:1000500069F01CF4892B39F008958230910541F044
:10006000039741F0089581E088BB089582E0FCCFBA
:1000700084E0FACF88E0F8CF21E030E030936100EF
:1000800020936000109263001092620012BE2091D3
:100090006000309161002115310529F41092610052
:1000A00010926000089540916200509163004817DB
:1000B000590789F730E020E0EECFFF920F931F93AE
:1000C000CF93DF938C01D0E0C0E08FE0F82EC01713
:1000D000D10734F0DF91CF911F910F91FF900895D8
:1000E000F8BA84EF91E0C8DF18BA84EF91E0C4DF7A
:1000F0002196EDCF1F920F920FB60F9211248F937E
:100100009F938091600090916100892B49F08091CC
:100110006200909163000196909363008093620067
:100120009F918F910F900FBE0F901F901895813067
:10013000910529F054F00397029720F0089582E08A
:1001400090E0BBCF83E090E0FCCF0895CF93109276
:1001500063001092620012BE10BE83E083BFC2E053
:10016000C9BF8FE087BB88ED8BBFC4B9C5B98AE032
:1001700085BF789481E088BB88EE93E07DDFC8BBC3
:1001800088EE93E079DF84E088BB88EE93E074DF4B
:1001900088E088BB88EE93E06FDF90E080E0CF914D
:0601A0000895F894FFCF62
:00000001FF
