:1000000014C02EC02DC02CC02BC02AC085C028C053
:1000100027C026C025C024C023C022C021C020C0C4
:100020001FC01EC01DC05AC189C111241FBECFE50B
:10003000D1E0DEBFCDBF10E0A0E6B0E0EEE0FAE038
:1000400002C005900D92AA36B107D9F720E0AAE6C2
:10005000B0E001C01D92AC38B207E1F7A5D2D5C41B
:10006000CFCFBC01990F880B990B63D325ED3FE0EF
:100070004BE05FE3C2D32AD3072E000C880B990B09
:1000800028EE33E040E050E0BFD2DC01CB012AE0B3
:10009000B695A795979587952A95D1F7BC0181E0EC
:1000A00090E090936F0080936E0010928B001092FE
:1000B0008A0012BE80916E0090916F00009751F0FF
:1000C00020918A0030918B0026173707B8F380E023
:1000D00090E0F4CF10926F0010926E000895FF929E
:1000E0000F931F93CF93DF938C01C0E0D0E08FE09C
:1000F000F82EC017D10754F4F8BA88EE93E0B1DFB8
:1001000018BA88EE93E0ADDF2196F3CFDF91CF915F
:100110001F910F91FF9008951F920F920FB60F92AB
:1001200011248F939F9380916E0090916F00892B83
:1001300049F080918A0090918B00019690938B00FA
:1001400080938A009F918F910F900FBE0F901F9008
:1001500018950F931F93CF93DF9380916200909136
:1001600063002CD4C0E7D0E004E010E023D4B80151
:1001700064D28993999380E0CA38D807B9F7DF91A0
:10018000CF911F910F910895CF93DF9300D0CDB7FA
:10019000DEB7019770F01A82198229813A812330E3
:1001A0003105BCF729813A812F5F3F4F3A8329837C
:1001B000F4CF0F900F90DF91CF9108954F925F92FF
:1001C0006F927F928F929F92AF92BF92CF92DF9267
:1001D000EF92FF929C01990F440B550B60E472E47F
:1001E0008FE090E03DD249015A01B694A7949794CC
:1001F000879460E47DE083E090E032D229013A0107
:10020000C12CD12C7601C414D504E604F70461F0A6
:10021000C49AC401B9DFC498C401B6DF8FEFC81A0D
:10022000D80AE80AF80AEFCFFF90EF90DF90CF905E
:10023000BF90AF909F908F907F906F905F904F9006
:1002400008958130910579F01CF4892B39F00895D7
:100250008230910569F0039781F0089581E088BBB1
:1002600088E891E00EC082E088BB88EB91E009C08D
:1002700084E088BB8DEE91E004C088E088BB8BE011
:1002800092E09CCF0F931F93CF93DF9300E710E092
:10029000C0E0D0E0809160009091610002968C17E0
:1002A0009D07B4F0F801819191918F01CADF80918F
:1002B000600090916100019768E37FEF94D18053D3
:1002C000984FCFDE18BA88EC90E0CBDE2196E2CFD3
:1002D00018BADF91CF911F910F9108951F920F923D
:1002E0000FB60F9211242F933F934F935F936F9309
:1002F0007F938F939F93AF93BF93EF93FF93C9998E
:100300000CC081E090E0909365008093640082E0EF
:1003100088BB88EB91E052DF18BAFF91EF91BF9153
:10032000AF919F918F917F916F915F914F913F918D
:100330002F910F900FBE0F901F9018951F920F9244
:100340000FB60F9211242F933F934F935F936F93A8
:100350007F938F939F93AF93BF93EF93FF93819975
:1003600009C0109265001092640081E088BB88E8A3
:1003700091E019C082990BC082E090E090936500F3
:100380008093640084E088BB8DEE91E00CC083997B
:100390000CC083E090E0909365008093640088E057
:1003A00088BB8BE092E00ADF18BAFF91EF91BF9112
:1003B000AF919F918F917F916F915F914F913F91FD
:1003C0002F910F900FBE0F901F90189581E088BB62
:1003D00088E891E0F3DE18BA2FEF81EE94E0215027
:1003E00080409040E1F700C0000082E088BB88EBCD
:1003F00091E0E4DE18BA2FEF81EE94E021508040C6
:100400009040E1F700C0000084E088BB8DEE91E0F1
:10041000D5DE18BA2FEF81EE94E021508040904055
:10042000E1F700C0000088E088BB8BE092E0C6DE08
:1004300018BA089588E088BB8BE092E0BFDE18BA56
:100440002FEF81EE94E0215080409040E1F700C012
:10045000000084E088BB8DEE91E0B0DE18BA2FEF8B
:1004600081EE94E0215080409040E1F700C0000010
:1004700082E088BB88EB91E0A1DE18BA2FEF81EE15
:1004800094E0215080409040E1F700C0000081E0FE
:1004900088BB88E891E092CECF93DF93C0916C0047
:1004A000D0916D00C230D105B1F184F4209719F1DB
:1004B000C130D10509F075C089DF82E090E00FDE20
:1004C00048DED0936100C093600065C0C330D105A1
:1004D00051F1249709F065C0ADDF83E090E0FFDDC6
:1004E0008FEF9FEF909365008093640010926D00F2
:1004F00010926C0056C08091640090916500019646
:1005000009F44FC08FEF9FEF9093650080936400D4
:1005100081E090E042C0B6DE10926B0010926A005B
:1005200083E090E03AC0809164009091650001966C
:10053000C1F120916A0030916B008091640090912C
:100540006500F901EE0FFF1FE059FF4F4081518117
:1005500048175907E9F42F5F3F4F30936B00209302
:100560006A008FEF9FEF9093650080936400809105
:10057000600090916100AC014D5F5F4F241735071B
:1005800081F4019690936100809360000E9719F4B6
:1005900084E090E002C082E090E090936D00809350
:1005A0006C00DF91CF91089510928B0010928A0019
:1005B00012BE10BE83E083BF92E099BF8FE087BB7D
:1005C000BC9AD198D99A81B3817F81BB82B38E6066
:1005D00082BB88E18BBF94B98EE085B98AE085BF84
:1005E00078945ADFFECF0024552704C0080E591F07
:1005F000880F991F009729F076956795B8F37105D4
:10060000B9F7802D952F0895EE27FF27AA27BB273E
:1006100008C0A20FB31FE41FF51F220F331F441F92
:10062000551F969587957795679598F37040A9F72C
:10063000009799F7BD01CF01089597FB072E16F497
:10064000009406D077FD08D02DD007FC05D03EF4ED
:10065000909581959F4F0895709561957F4F08956E
:10066000A1E21A2EAA1BBB1BFD010DC0AA1FBB1FB6
:10067000EE1FFF1FA217B307E407F50720F0A21B28
:10068000B30BE40BF50B661F771F881F991F1A9495
:1006900069F760957095809590959B01AC01BD01BF
:1006A000CF010895AA1BBB1B51E107C0AA1FBB1FA6
:1006B000A617B70710F0A61BB70B881F991F5A95EE
:1006C000A9F780959095BC01CD01089504D0689458
:1006D000B1118DC0089570D088F09F5790F0B92F58
:1006E0009927B751A0F0D1F0660F771F881F991F87
:1006F0001AF0BA95C9F712C0B13081F077D0B1E0E5
:10070000089574C0672F782F8827B85F39F0B93FF4
:10071000CCF3869577956795B395D9F73EF4909588
:100720008095709561957F4F8F4F9F4F0895E89406
:1007300009C097FB3EF490958095709561957F4F29
:100740008F4F9F4F9923A9F0F92F96E9BB279395D7
:10075000F695879577956795B795F111F8CFFAF4E7
:10076000BB0F11F460FF1BC06F5F7F4F8F4F9F4F18
:1007700016C0882311F096E911C0772321F09EE876
:10078000872F762F05C0662371F096E8862F70E0DC
:1007900060E02AF09A95660F771F881FDAF7880FB6
:1007A0009695879597F9089557FD9058440F551FD2
:1007B00059F05F3F71F04795880F97FB991F61F0E3
:1007C0009F3F79F087950895121613061406551F5A
:1007D000F2CF4695F1DF08C0161617061806991FC6
:1007E000F1CF86957105610508940895E894BB27BB
:1007F00066277727CB0197F908950AD080C071D07A
:1008000028F076D018F0952309F062C067C0EFCFCA
:10081000CBDFA8F39923D9F35523C9F3950F50E003
:10082000551FAA27EE27FF27BB27002408946795AA
:1008300020F4E20FF31FB41F0A1E220F331F441FC0
:10084000AA1F6695A9F7779530F4F30FB41F0A1E17
:10085000121E08F46395330F441FAA1F221F7695BA
:1008600099F7879520F4B40F0A1E121E631F440FD8
:10087000AA1F221F331F8695A9F7862F712D602D81
:1008800011249F5750408AF0E1F088234AF0EE0F80
:10089000FF1FBB1F661F771F881F91505040A9F78D
:1008A0009E3F510570F014C0A2CF5F3FECF3983E1D
:1008B000DCF3869577956795B795F795E7959F5FF4
:1008C000C1F7FE2B880F911D9695879597F908958E
:1008D00097F99F6780E870E060E008959FEF80ECF3
:1008E000089500240A941616170618060906089596
:1008F00000240A9412161306140605060895092EFC
:100900000394000C11F4882352F0BB0F40F4BF2B6A
:1009100011F460FF04C06F5F7F4F8F4F9F4F0895AA
:100920008F929F92AF92BF92CF92DF92EF92FF92FF
:10093000CF93DF93EC01688179818A819B81611576
:1009400071058105910521F464E279ED8BE597E06D
:100950002DE133EF41E050E03CD049015A0127EA54
:1009600031E440E050E050DE6B017C012CEE34EFCE
:100970004FEF5FEFC501B40147DEDC01CB018C0D09
:100980009D1DAE1DBF1DB7FF03C00197A109B04853
:1009900088839983AA83BB839F77DF91CF91FF9050
:1009A000EF90DF90CF90BF90AF909F908F90089581
:1009B000B7DF089586E690E0B3DF0895A0E0B0E0E9
:1009C0008093660090936700A0936800B0936900DD
:1009D0000895052E97FB16F400940FD057FD05D00F
:1009E0003FDE07FC02D046F408C050954095309594
:1009F00021953F4F4F4F5F4F08959095809570958B
:0E0A000061957F4F8F4F9F4F0895F894FFCF61
:0A0A0E0001008900FFFF0100000055
:00000001FF
