:1000000014C02EC02DC02CC02BC02AC068C028C070
:1000100027C026C025C024C023C022C021C020C0C4
:100020001FC01EC01DC03DC169C111241FBECFE548
:10003000D1E0DEBFCDBF10E0A0E6B0E0E0E0F7E049
:1000400002C005900D92AC36B107D9F720E0ACE6BE
:10005000B0E001C01D92AC38B207E1F748D24EC300
:10006000CFCF21E030E030936F0020936E001092EC
:100070008B0010928A0012BE20916E0030916F00AA
:100080002115310551F040918A0050918B0048179D
:100090005907B1F720E030E0F3CF10926F001092D3
:1000A0006E000895FF920F931F93CF93DF938C01FF
:1000B000C0E0D0E08FE0F82EC017D10754F4F8BAB2
:1000C00088EE93E0CEDF18BA88EE93E0CADF21967F
:1000D000F3CFDF91CF911F910F91FF9008951F9261
:1000E0000F920FB60F9211248F939F9380916E0001
:1000F00090916F00892B49F080918A0090918B003C
:10010000019690938B0080938A009F918F910F901E
:100110000FBE0F901F9018950F931F93CF93DF93EF
:100120008091640090916500A9D2C0E7D0E004E01E
:1001300010E0A0D2B8010BD28993999380E0CA381D
:10014000D807B9F7DF91CF911F910F910895CF9301
:10015000DF9300D0CDB7DEB7019770F01A82198215
:1001600029813A8123303105BCF729813A812F5FFB
:100170003F4F3A832983F4CF0F900F90DF91CF91B7
:1001800008954F925F926F927F928F929F92AF925B
:10019000BF92CF92DF92EF92FF929C01990F440B96
:1001A000550B60E472E48FE090E0E4D149015A011C
:1001B000B694A7949794879460E47DE083E090E000
:1001C000D9D129013A01C12CD12C7601C414D5040E
:1001D000E604F70461F0C49AC401B9DFC498C4010D
:1001E000B6DF8FEFC81AD80AE80AF80AEFCFFF90F7
:1001F000EF90DF90CF90BF90AF909F908F907F90C7
:100200006F905F904F9008958130910579F01CF4C4
:10021000892B39F008958230910569F0039781F0B8
:10022000089581E088BB88E891E00EC082E088BB39
:1002300088EB91E009C084E088BB8DEE91E004C0BA
:1002400088E088BB8BE092E09CCF0F931F93CF9305
:10025000DF9300E710E0C0E0D0E080916200909171
:10026000630002968C179D07B4F0F801819191917B
:100270008F01CADF8091620090916300019768E36B
:100280007FEF54D18053984FECDE18BA88EC90E0A1
:10029000E8DE2196E2CF18BADF91CF911F910F913E
:1002A00008951F920F920FB60F9211242F933F9330
:1002B0004F935F936F937F938F939F93AF93BF936E
:1002C000EF93FF93C99909C081E090E09093670094
:1002D0008093660088EB91E054DFFF91EF91BF912E
:1002E000AF919F918F917F916F915F914F913F91CE
:1002F0002F910F900FBE0F901F9018951F920F9285
:100300000FB60F9211242F933F934F935F936F93E8
:100310007F938F939F93AF93BF93EF93FF938199B5
:1003200007C0109267001092660088E891E015C03F
:10033000829909C082E090E0909367008093660004
:100340008DEE91E00AC0839909C083E090E090931C
:100350006700809366008BE092E013DFFF91EF91DE
:10036000BF91AF919F918F917F916F915F914F91CD
:100370003F912F910F900FBE0F901F90189588E816
:1003800091E0FFDE87EA91E60197F1F700C00000F7
:1003900088EB91E0F6DE87EA91E60197F1F700C07D
:1003A00000008DEE91E0EDDE87EA91E60197F1F72E
:1003B00000C000008BE092E0E4CE8BE092E0E1DE52
:1003C00087EA91E60197F1F700C000008DEE91E019
:1003D000D8DE87EA91E60197F1F700C0000088EBCC
:1003E00091E0CFDE87EA91E60197F1F700C00000C7
:1003F00088E891E0C6CECF93DF93C0916000D091A2
:100400006100C230D10551F184F42097E9F0C13088
:10041000D10509F069C0B3DF82E090E043DE7CDE05
:10042000D0936300C093620059C0C330D105F1F08E
:10043000249709F059C0C1DF83E090E033DE1092C9
:1004400061001092600050C080916600909167003A
:10045000019609F449C081E090E042C0F6DE1092B6
:100460006D0010926C0083E090E03AC080916600CD
:10047000909167000196C1F120916C0030916D0060
:100480008091660090916700F901EE0FFF1FE0591F
:10049000FF4F4081518148175907E9F42F5F3F4FC3
:1004A00030936D0020936C008FEF9FEF9093670067
:1004B000809366008091620090916300AC014D5F73
:1004C0005F4F2417350781F4019690936300809362
:1004D00062000E9719F484E090E002C082E090E0A0
:1004E0009093610080936000DF91CF910895109206
:1004F0008B0010928A0012BE10BE83E083BF92E090
:1005000099BF8FE087BBBC9AD198D99A81B3817F7C
:1005100081BB82B38E6082BB88E18BBF94B98EE0D1
:1005200085B98AE085BF789466DFFECF0024552721
:1005300004C0080E591F880F991F009729F076955F
:100540006795B8F37105B9F7802D952F089597FB3E
:10055000072E16F4009406D077FD08D02DD007FCA6
:1005600005D03EF4909581959F4F089570956195C3
:100570007F4F0895A1E21A2EAA1BBB1BFD010DC0DF
:10058000AA1FBB1FEE1FFF1FA217B307E407F50743
:1005900020F0A21BB30BE40BF50B661F771F881F1F
:1005A000991F1A9469F760957095809590959B01B5
:1005B000AC01BD01CF010895AA1BBB1B51E107C0CF
:1005C000AA1FBB1FA617B70710F0A61BB70B881FE3
:1005D000991F5A95A9F780959095BC01CD01089572
:1005E0008F929F92AF92BF92CF92DF92EF92FF9243
:1005F000CF93DF93EC01688179818A819B816115BA
:1006000071058105910521F464E279ED8BE597E0B0
:100610002DE133EF41E050E055D049015A0127EA7E
:1006200031E440E050E035D06B017C012CEE34EF3A
:100630004FEF5FEFC501B4012CD0DC01CB018C0D75
:100640009D1DAE1DBF1DB7FF03C00197A109B04896
:1006500088839983AA83BB839F77DF91CF91FF9093
:10066000EF90DF90CF90BF90AF909F908F900895C4
:10067000B7DF089588E690E0B3DF0895A0E0B0E02A
:100680008093680090936900A0936A00B0936B0018
:100690000895EE27FF27AA27BB2708C0A20FB31F84
:1006A000E41FF51F220F331F441F551F9695879592
:1006B0007795679598F37040A9F7009799F7BD0172
:1006C000CF010895052E97FB16F400940FD057FD27
:1006D00005D050DF07FC02D046F408C05095409585
:1006E000309521953F4F4F4F5F4F089590958095DE
:1006F000709561957F4F8F4F9F4F0895F894FFCF6E
:0C070000010001008900FFFF0100000063
:00000001FF
