:1000000014C023C022C021C020C01FC05AC01DC0C0
:100010001CC01BC01AC019C018C017C016C015C01C
:1000200014C013C012C011C010C011241FBECFE5F0
:10003000D1E0DEBFCDBF20E0A0E6B0E001C01D9260
:10004000A436B207E1F769D07EC0DACF97FD0796F4
:1000500023E0959587952A95E1F721E030E03093EC
:10006000610020936000109263001092620012BE43
:10007000209162003091630028173907C4F3109271
:100080006100109260000895FF920F931F93CF9329
:10009000DF938C01D0E0C0E08FE0F82EC017D107CD
:1000A00034F0DF91CF911F910F91FF900895F8BA2E
:1000B00080E197E2CBDF18BA80E197E2C7DF2196B3
:1000C000EDCF1F920F920FB60F9211248F939F9333
:1000D0008091600090916100892B49F080916200CD
:1000E00090916300019690936300809362009F91CA
:1000F0008F910F900FBE0F901F9018958130910532
:1001000029F054F00397029720F0089582E090E0E0
:10011000BBCF83E090E0FCCF089510926300109273
:10012000620012BE10BE83E083BF8FE087BB88ED04
:100130008BBF82E084B985B98AE085BF789482E07C
:0A01400090E0A2DFFCCFF894FFCF9F
:00000001FF
