:1000000014C023C022C021C020C01FC05DC01DC0BD
:100010001CC01BC01AC019C018C017C016C015C01C
:1000200014C013C012C011C010C011241FBECFE5F0
:10003000D1E0DEBFCDBF20E0A0E6B0E001C01D9260
:10004000A436B207E1F76CD081C0DACF21E030E00E
:100050003093610020936000109263001092620060
:1000600012BE20916000309161002115310529F404
:1000700010926100109260000895409162005091CA
:1000800063004817590789F730E020E0EECFFF9270
:100090000F931F93CF93DF938C01D0E0C0E08FE0EC
:1000A000F82EC017D10734F0DF91CF911F910F9137
:1000B000FF900895F8BA84EF91E0C8DF18BA84EF92
:1000C00091E0C4DF2196EDCF1F920F920FB60F92F1
:1000D00011248F939F938091600090916100892BF0
:1000E00049F08091620090916300019690936300C3
:1000F000809362009F918F910F900FBE0F901F9081
:1001000018958130910529F054F00397029720F05B
:10011000089582E090E0BBCF83E090E0FCCF0895AB
:10012000109263001092620012BE10BE83E083BF83
:1001300082E089BF9FE097BB98ED9BBF84B985B9EA
:100140008AE085BF789490E080E00895F894FFCF2E
:00000001FF
