:1000000014C02EC02DC02CC02BC02AC029C028C0AF
:1000100027C026C025C024C023C099C121C020C04C
:100020001FC01EC01DC06AC11BC011241FBECFE56A
:10003000D1E0DEBFCDBF10E0A0E6B0E0EEE3F7E038
:1000400002C005900D92A037B107D9F720E0A0E7D4
:10005000B0E001C01D92A139B207E1F7FED16DC336
:10006000CFCF82E080BF85E083BF89E086BF89B7BC
:10007000816089BF1FBC8AE08EBD1BBC1ABC08957D
:100080001AB887B38F6087BBBC9A88B3807E88BB61
:1000900081B3807F81BB82B38F6082BB84B1876074
:1000A00084B98BB788608BBF7894DBDF81E090E008
:1000B00004C30F931F93CF93DF93C0E0D0E004E01D
:1000C00010E0F7D2B80162D2FE01E358FF4F8083FF
:1000D0002196CA30D105A9F7DF91CF911F910F91D9
:1000E000089588B3807F88BB0895CF93C82FF9DF28
:1000F000C13049F030F0C23041F0C33039F4C39A16
:1001000005C0C09A03C0C19A01C0C29ACF91089598
:100110008FB58F7E8FBDC4980895843058F4E82F32
:10012000F0E0EE0FFF1FE859FF4F208131812115CC
:10013000310509F4EDCFC901A0E0B0E09C01AD01AB
:1001400084E0220F331F441F551F8A95D1F760E0CA
:1001500074E284EF90E02DD2215031093BBD2ABDDD
:100160008FB580618FBD0895CF93C0E08C2FD5DF10
:100170002FEF83EC99E0215080409040E1F700C0E0
:100180000000C6DF2FEF81EE94E0215080409040C8
:10019000E1F700C00000CF5FC43041F788B38F6043
:1001A00088BB2FEF89E698E1215080409040E1F72D
:1001B00000C0000096DF2FEF89E698E121508040D3
:1001C0009040E1F700C0000088B38F6088BB2FEF3C
:1001D00089E698E1215080409040E1F700C000009E
:1001E00080DF2FEF89E698E1215080409040E1F7D1
:1001F00000C000001092780010927700C093630056
:1002000080ED97E0909362008093610010927600F9
:10021000CF910895CF93DF93D3E088B38F6088BBED
:10022000C3E08C2F7ADF2FEF81EE94E021508040E5
:100230009040E1F700C000006BDF2FEF80E792E015
:10024000215080409040E1F700C00000C15048F7C5
:100250002FEF83EC99E0215080409040E1F700C0FF
:1002600000003FDF2FEF83EC99E021508040904069
:10027000E1F700C00000D15081F6DF91CF910895E1
:1002800080E090916300891770F4282F30E0F90125
:10029000E957FF4F4081F901E358FF4F908149131F
:1002A00004C08F5FEECF81E0089580E008958091D3
:1002B00078008F5F80937800809163008F5F8093D8
:1002C0006300809163008B3018F08AE080936300B4
:1002D0008091610090916200893C910550F080917D
:1002E000610090916200885C910990936200809314
:1002F0006100109277001092760008951F920F927D
:100300000FB60F9211248F939F938091720090915A
:10031000730001969093730080937200809903C0DC
:10032000109260000DC0819902C081E007C08299DF
:1003300002C082E003C0839903C083E08093600021
:100340009F918F910F900FBE0F901F9018951F9245
:100350000F920FB60F9211242F933F934F935F93F9
:100360006F937F938F939F93AF93BF93EF93FF937D
:1003700080917B0090917C000A9690937C00809302
:100380007B002091740030917500232BF9F480914B
:10039000790090917A000A96843F21E0920728F430
:1003A00090937A008093790047C010927A0010925F
:1003B000790097DE8091700098DE8091700090E067
:1003C0000196837099278093700036C02091740045
:1003D0003091750022303105B1F4209161003091E7
:1003E00062008217930740F110927C0010927B000C
:1003F00078DE8EDE809176008F5F8093760081E0DC
:100400008093710019C020917400309175002330E1
:10041000310571F4209161003091620082179307D9
:1004200058F010927C0010927B005BDE71DE04C0FD
:1004300010927C0010927B00FF91EF91BF91AF91E1
:100440009F918F917F916F915F914F913F912F91EC
:100450000F900FBE0F901F90189512DE2ADE05E058
:1004600010E0C2E0D0E099249A9484E0E82EF12CC8
:10047000CC24C394D12C23E0A22EB12C8091740003
:100480009091750082309105F9F030F4009789F071
:100490000197A1F769DE70C08430910509F468C046
:1004A000B8F1059759F7B6DE1092750010927400F6
:1004B000E5CF809160008F3F09F3D0927500C09224
:1004C000740090926000DACF809171008823B1F2BD
:1004D000109271009091760080916300981778F4E3
:1004E000E0917600F0E0E358FF4F8081FEDDE0917F
:1004F0007600F0E0E358FF4F80810FDEBFCF10920F
:100500007600B0927500A0927400EBDD01DEB6CFEC
:10051000809160008F3F09F4B1CFE091770081E0D6
:100520008E0F80937700F0E080916000E957FF4FD5
:10053000808380916000D9DD80916000EEDD2FEF37
:1005400083EC99E0215080409040E1F700C000002A
:10055000C8DDDEDD909260009091770080916300AD
:10056000981708F48BCFF0927500E092740086CF54
:1005700087DE882331F09BDED0937500C093740032
:100580007DCF109375000093740078CF97FB072EF2
:1005900016F4009406D077FD08D02DD007FC05D0C6
:1005A0003EF4909581959F4F0895709561957F4F8A
:1005B0000895A1E21A2EAA1BBB1BFD010DC0AA1FA4
:1005C000BB1FEE1FFF1FA217B307E407F50720F0BC
:1005D000A21BB30BE40BF50B661F771F881F991F37
:1005E0001A9469F760957095809590959B01AC0180
:1005F000BD01CF010895AA1BBB1B51E107C0AA1F73
:10060000BB1FA617B70710F0A61BB70B881F991FB3
:100610005A95A9F780959095BC01CD0108958F92C8
:100620009F92AF92BF92CF92DF92EF92FF92CF93C1
:10063000DF93EC01688179818A819B816115710565
:100640008105910521F464E279ED8BE597E02DE1D8
:1006500033EF41E050E055D049015A0127EA31E437
:1006600040E050E035D06B017C012CEE34EF4FEFD1
:100670005FEFC501B4012CD0DC01CB018C0D9D1DB9
:10068000AE1DBF1DB7FF03C00197A109B048888305
:100690009983AA83BB839F77DF91CF91FF90EF90DF
:1006A000DF90CF90BF90AF909F908F900895B7DF6D
:1006B000089584E690E0B3DF0895A0E0B0E0809371
:1006C000640090936500A0936600B093670008955E
:1006D000EE27FF27AA27BB2708C0A20FB31FE41FDE
:1006E000F51F220F331F441F551F96958795779549
:1006F000679598F37040A9F7009799F7BD01CF016E
:100700000895052E97FB16F400940FD057FD05D0E1
:1007100050DF07FC02D046F408C050954095309554
:1007200021953F4F4F4F5F4F08959095809570955D
:0E07300061957F4F8F4F9F4F0895F894FFCF34
:10073E00FFD007040100000006014A0188010B02E8
:00000001FF
