:100000000C94DD020C9405030C9405030C94050379
:100010000C9405030C9405030C9405030C94050340
:100020000C9405030C9405030C9405030C94050330
:100030000C9405030C9405030C9405030C94050320
:100040000C9494090C9405030C9405030C9405037B
:100050000C9405030C9405030C9405030C94050300
:100060000C940F0A0C940503000000080002010024
:100070000003040700000000000000000000000072
:10008000240027002A0000000000003E5B4F5B3E7A
:100090003E6B4F6B3E1C3E7C3E1C183C7E3C181C4D
:1000A000577D571C1C5E7F5E1C00183C1800FFE744
:1000B000C3E7FF0018241800FFE7DBE7FF30483AEA
:1000C000060E2629792926407F050507407F05254C
:1000D0003F5A3CE73C5A7F3E1C1C08081C1C3E7FD4
:1000E00014227F22145F5F005F5F06097F017F009B
:1000F0006689956A606060606094A2FFA2940804BB
:100100007E040810207E201008082A1C08081C2ADB
:1001100008081E101010100C1E0C1E0C30383E3833
:1001200030060E3E0E06000000000000005F0000DA
:100130000007000700147F147F14242A7F2A12234B
:100140001308646236495620500008070300001C5B
:100150002241000041221C002A1C7F1C2A08083E64
:100160000808008070300008080808080000606077
:100170000020100804023E5149453E00427F4000E5
:1001800072494949462141494D331814127F1027BD
:10019000454545393C4A494931412111090736490C
:1001A000494936464949291E0000140000004034E0
:1001B00000000008142241141414141400412214E5
:1001C0000802015909063E415D594E7C1211127C0C
:1001D0007F494949363E414141227F4141413E7F6D
:1001E000494949417F090909013E414151737F084D
:1001F00008087F00417F41002040413F017F0814F3
:1002000022417F404040407F021C027F7F04081053
:100210007F3E4141413E7F090909063E4151215E31
:100220007F09192946264949493203017F01033FC5
:100230004040403F1F2040201F3F4038403F631454
:1002400008146303047804036159494D43007F4156
:1002500041410204081020004141417F0402010293
:1002600004404040404000030708002054547840B8
:100270007F284444383844444428384444287F384C
:100280005454541800087E090218A4A49C787F08CE
:1002900004047800447D40002040403D007F102849
:1002A000440000417F40007C047804787C0804040A
:1002B000783844444438FC1824241818242418FCA2
:1002C0007C08040408485454542404043F44243C47
:1002D0004040207C1C2040201C3C4030403C4428B6
:1002E0001028444C9090907C4464544C4400083650
:1002F00041000000770000004136080002010204BE
:10030000023C2623263C1EA1A161123A4040207ADD
:100310003854545559215555794122545478422125
:100320005554784020545579400C1E52721239555C
:100330005555593954545459395554545800004559
:100340007C410002457D420001457C407D12111236
:100350007DF0282528F07C545545002054547C54C9
:100360007C0A097F4932494949323A4444443A3285
:100370004A4848303A4141217A3A42402078009D2B
:10038000A0A07D3D4242423D3D4040403D3C24FFD7
:100390002424487E4943662B2FFC2F2BFF0929F686
:1003A00020C0887E090320545479410000447D41D7
:1003B0003048484A32384040227A007A0A0A727D30
:1003C0000D19317D2629292F28262929292630484B
:1003D0004D4020380808080808080808382F10C8B9
:1003E000ACBA2F102834FA00007B000008142A143D
:1003F0002222142A14085500550055AA55AA55AAB8
:10040000FF55FF55FF000000FF00101010FF001403
:100410001414FF001010FF00FF1010F010F014145F
:1004200014FC001414F700FF0000FF00FF1414F484
:1004300004FC141417101F10101F101F1414141F85
:1004400000101010F0000000001F101010101F10FE
:10045000101010F010000000FF10101010101010FD
:100460001010FF10000000FF140000FF00FF00004C
:100470001F10170000FC04F414141710171414F4C0
:1004800004F40000FF00F714141414141414F700FB
:10049000F7141414171410101F101F141414F4144C
:1004A0001010F010F000001F101F0000001F1400BB
:1004B0000000FC140000F010F01010FF10FF1414E6
:1004C00014FF141010101F00000000F010FFFFFFB9
:1004D000FFFFF0F0F0F0F0FFFFFF0000000000FF72
:1004E000FF0F0F0F0F0F3844443844FC4A4A4A3478
:1004F0007E02020606027E027E026355494163388F
:1005000044443C04407E201E2006027E020299A53F
:10051000E7A5991C2A492A1C4C7201724C304A4D9D
:100520004D303048784830BC625A463D3E494949D2
:10053000007E0101017E2A2A2A2A2A44445F44447B
:1005400040514A444040444A51400000FF0103E00A
:1005500080FF000008086B6B083612362436060F41
:10056000090F06000018180000001010003040FFAE
:100570000101001F01011E00191D1712003C3C3C27
:100580003C0000000000010204081020408001022D
:1005900004081020010204081020000000002500BB
:1005A00028002B00040404040404040402020202D0
:1005B0000202030303030303631511241FBECFEFDD
:1005C000D8E0DEBFCDBF24E0A2EAB3E001C01D92B7
:1005D000A638B207E1F713E0A0E0B1E0EAE4F5E302
:1005E00002C005900D92A23AB107D9F712E0CDED05
:1005F000D2E004C02197FE010E94A118CC3DD10792
:10060000C9F70E94B8120C94A31A0C940000CF9260
:10061000DF92EF92FF920F931F93CF93DF936C01C2
:100620007A018B01C0E0D0E0CE15DF0581F0D80162
:100630006D918D01D601ED91FC910190F081E02D3D
:10064000C6010995892B11F02196EECF7E01C701D5
:10065000DF91CF911F910F91FF90EF90DF90CF909E
:1006600008953FB7F8948091140490911504A091D7
:100670001604B091170426B5A89B05C02F3F19F0AA
:100680000196A11DB11D3FBFBA2FA92F982F882712
:10069000820F911DA11DB11DBC01CD0142E0660F6D
:1006A000771F881F991F4A95D1F70895FC01CA0149
:1006B000D90177FD91C020853185621773070CF051
:1006C0008BC057FD89C022853385421753070CF034
:1006D00083C02689223059F02330B1F02130D1F483
:1006E0002FE230E0261B370BBA01C90113C023E506
:1006F00030E0A901461B570BBA012FE230E0A901F7
:10070000481B590BCA0106C043E550E0481B590B72
:10071000CB01BA01382F562F43A1641708F4462F96
:1007200043A344A1451708F4452F44A345A134171A
:1007300008F4432F45A346A1431708F4432F46A3CB
:100740009C01AB2B21F197FF02C0295F3F4F53E083
:10075000359527955A95E1F744E5429FF001439F6F
:10076000F00D11246E0F7F1FFB01E050FF4F68E07A
:1007700070E00E94571821E030E0A90102C0440F48
:10078000551F8A95E2F7CA019081892B24C097FFF3
:1007900002C0295F3F4F43E0359527954A95E1F721
:1007A00044E5429FF001439FF00D11246E0F7F1F1F
:1007B000FB01E050FF4F68E070E00E94571821E015
:1007C00030E0A90102C0440F551F8A95E2F7CA0123
:1007D000809590818923808308954091C903262FB5
:1007E00030E0240F311D21323105DCF42091ED037E
:1007F0002430C9F4FC0180E090E0861758F4309171
:10080000C9032191DC01A755BC4FA30FB11D2C9347
:100810000196F3CF8091C903680F6093C90380E00C
:10082000089581E0089582E0089508958FEF9FEF85
:1008300008958FEF9FEF08958091A20390E0919526
:10084000819591090895CF93DF93CB01EA01642F3D
:100850000E94ED03CE01DF91CF910895CF93DF93F6
:100860001F92CDB7DEB7698361E0CE0101960E9489
:10087000ED0381E090E00F90DF91CF91089508950E
:10088000FC016370668B848195812681378161309C
:1008900039F0633029F09187808733872287089564
:1008A000318720879387828708956F927F928F92F6
:1008B0009F92AF92BF92CF92DF92EF92FF920F93EF
:1008C0001F93CF93DF93EC014B015A01690138016B
:1008D000E881F9810284F385E02D0995E881F981A9
:1008E0000288F389E02D87019601A501B401CE01AC
:1008F0000995A501460D571D41505109E881F9811F
:100900000288F389E02D9601B401CE010995E881B2
:10091000F9810088F189E02D9301A501B401CE0190
:100920000995C80CD91CB60161507109E881F9819B
:100930000088F189E02D9301A501CE010995E88198
:10094000F9810688F789E02DCE01DF91CF911F91C3
:100950000F91FF90EF90DF90CF90BF90AF909F905E
:100960008F907F906F9009948F929F92AF92BF92D9
:10097000CF92DF92EF92FF920F931F93CF93DF936B
:100980004C016B015A01E901DC01ED91FC91621708
:10099000730781F40417150724F48B2D5801042FD5
:1009A000182F0A191B0998012F5F3F4F048CF58DF2
:1009B000E02D12C04017510709F52617370724F418
:1009C0008D2D6901C62FD82F9E012C193D092F5F4F
:1009D0003F4F068CF78DE02D8701A501B601C401BC
:1009E0000995DF91CF911F910F91FF90EF90DF90CC
:1009F000CF90BF90AF909F908F9008950284F38521
:100A0000E02D0995D401ED91FC910488F589E02D44
:100A10009E01A501B601C4010995D401ED91FC9197
:100A20000688F789E02DC401DF91CF911F910F91C6
:100A3000FF90EF90DF90CF90BF90AF909F908F90FE
:100A40000994EF92FF920F931F93DC011A960D9178
:100A50001C911B9718962D913C911997ED91FC9143
:100A600000A0F1A1E02D7B0140E050E060E070E0EB
:100A700009951F910F91FF90EF9008954F925F920B
:100A80006F927F928F929F92AF92BF92CF92DF929E
:100A9000EF92FF920F931F93CF93DF936C012B0183
:100AA0005A0139014801DC01ED91FC910284F38582
:100AB000E02D0995E201640C751CD601ED91FC91C5
:100AC000C615D7055CF40088F189E02D87019401F3
:100AD000A501BE01C60109952196EFCF0688F789C9
:100AE000E02DC601DF91CF911F910F91FF90EF9004
:100AF000DF90CF90BF90AF909F908F907F906F903E
:100B00005F904F9009948F929F92AF92BF92CF9235
:100B1000DF92EF92FF920F931F93CF93DF93EC013D
:100B20005B014A016901E881F9810284F385E02DC6
:100B3000099595012C0D3D1D21503109E881F98160
:100B40000488F589E02D78018401A401B501CE0166
:100B50000995E881F9810688F789E02DCE01DF91BA
:100B6000CF911F910F91FF90EF90DF90CF90BF90AA
:100B7000AF909F908F9009948F929F92AF92BF9267
:100B8000CF92DF92EF92FF920F931F93CF93DF9359
:100B9000EC015B014A0169017801E881F981028475
:100BA000F385E02D0995C80CD91C86010150110967
:100BB000E881F9810488F589E02D9501A401B5014A
:100BC000CE010995E881F9810688F789E02DCE01EB
:100BD000DF91CF911F910F91FF90EF90DF90CF9019
:100BE000BF90AF909F908F900994EF92FF920F93D8
:100BF0001F93DC01ED91FC9100A0F1A1E02D09957E
:100C00001F910F91FF90EF9008950F931F93DC01B8
:100C1000ED91FC91068CF78DE02D09951F910F91B8
:100C200008950F931F93DC01ED91FC91048CF58DD9
:100C3000E02D09951F910F910895DC01ED91FC9134
:100C40000084F185E02D09942F923F924F925F929C
:100C50006F927F928F929F92AF92BF92CF92DF92CC
:100C6000EF92FF920F931F93CF93DF9300D000D0AA
:100C700000D0CDB7DEB72C017E836D836A015901A8
:100C8000C801FC82EB824801841A950A97FE03C0D2
:100C900091948194910835012D813E81621A730AE5
:100CA00077FE03C0719461947108681479045CF450
:100CB0003A2D2B2D5C01832F922F3D812E81DE82D8
:100CC000CD82C32ED22EAD81BE81AA16BB065CF4A6
:100CD0003C2D2D2D6C01832F922F3D812E81BE82C4
:100CE000AD82A32EB22E85012D813E81021B130BF6
:100CF0001C012C183D0837FE03C0319421943108A3
:100D0000780117FF03C03FEFE31AF30AF594E79465
:100D1000C816D9062CF08FEF9FEF9A83898304C001
:100D2000A1E0B0E0BA83A9832D813E81A216B3066B
:100D300024F1D201ED91FC910484F585E02D2B8105
:100D40003C816814790424F44D815E81B60103C0AE
:100D5000A6016D817E81C2010995E218F308F7FEB4
:100D600006C029813A81C20ED31EE00EF11E8D818C
:100D70009E8101969E838D83D7CF26960FB6F894D9
:100D8000DEBF0FBECDBFDF91CF911F910F91FF90BE
:100D9000EF90DF90CF90BF90AF909F908F907F901B
:100DA0006F905F904F903F902F900895089580E04E
:100DB00090E008950E948E1A0F931F93CF93DF93B4
:100DC000EC0188819981009729F02A813B812617BF
:100DD000370788F48B016F5F7F4F0E94C819009717
:100DE00061F0998388831B830A832C813D81232BA7
:100DF00011F4FC01108281E001C080E0DF91CF910D
:100E00001F910F9108958F929F92AF92CF92EF9280
:100E1000FF920F931F93CF93DF93EC01262F898DC1
:100E20009A8D009709F042C06A3059F41D861C86DD
:100E30002D898E859F8538E0239F800D911D11247B
:100E400043C06D3009F4AAC08F898823C9F03C895A
:100E50008C859D8546E0349F800D911D1124488529
:100E600059854817590764F41D861C863D898E856F
:100E70009F8548E0349F800D911D11249F878E87A8
:100E8000EA88FB88088919894E855F856C857D8590
:100E9000AD88CC88CE010E945D0E2C898C859D8505
:100EA00036E0239F800D911D11243EC06A3079F4F5
:100EB0001D861C862D89FC013896E4918E859F85C0
:100EC0002E9F800D911D11249F878E8767C06D30E6
:100ED00009F464C0FC0134963491631708F45EC0D1
:100EE0003296E491E61708F459C0462F431B342F7D
:100EF000FC0132968590949047E0349F800C911CC1
:100F00001124F401329634913196E491332311F097
:100F1000E1110DC0F4013496E4912C898C859D85F6
:100F2000E29F800D911D11249D878C8737C0F401AD
:100F3000359644915F89552319F15C89E32FF0E0E0
:100F4000E40FF11D47FDFA955E9FB0015F9F700DA4
:100F500011244C855D85460F571F68857985641778
:100F6000750774F41D861C863D89FC013896E49152
:100F70008E859F853E9F800D911D11249F878E87B2
:100F8000EA88FB88088919894E855F856C857D858F
:100F9000AD88CC88CE010E945D0EBCCF81E090E090
:100FA000DF91CF911F910F91FF90EF90CF90AF9075
:100FB0009F908F900895EF92FF920F931F93CF937E
:100FC000DF936115710511F480E01CC041155105D6
:100FD000C1F07B01EC018C819D818A01080F191FF2
:100FE000B801CE010E94DC06882371F32881398183
:100FF0008C819D81B701820F931F0E949C1A1D83D3
:101000000C8381E0DF91CF911F910F91FF90EF90C2
:101010000895CF93DF93EC0188819981009711F0B7
:101020000E943F19198218821D821C821B821A821B
:10103000DF91CF910895EF92FF920F931F93CF937B
:10104000DF93EC017B018A01BA010E94DC06811169
:1010500004C0CE010E94090807C01D830C83B7019C
:10106000888199810E949C1ACE01DF91CF911F91B6
:101070000F91FF90EF900895FC011182108213826E
:101080001282158214826115710551F0FB010190E5
:101090000020E9F73197AF01461B570B0C941B0852
:1010A000089590E0FC01E859FF4F2491FC01EA57B4
:1010B000FA4F3491FC01EC55FA4FE491EE2309F418
:1010C0003CC0222339F1233091F038F42130A9F0CB
:1010D000223001F584B58F7D12C0273091F0283081
:1010E000A1F02430B9F4809180008F7D03C08091FD
:1010F00080008F77809380000DC084B58F7784BD8A
:1011000009C08091B0008F7703C08091B0008F7DBF
:101110008093B000F0E0EE0FFF1FE656FA4FA59166
:10112000B4919FB7F894611104C08C913095382325
:1011300002C0EC913E2B3C939FBF08951F93CF9329
:10114000DF9385ED8093BC008091A5039091A60369
:10115000A091A703B091A8030796A11DB11D23E09C
:10116000B695A795979587952A95D1F72091BC00BC
:1011700024FF53C04091A5035091A6036091A7039B
:101180007091A803452B462B472B81F30097A105AF
:10119000B10541F02AE22A95F1F700C00197A109B3
:1011A000B109E4CF8091A403C1E0C093A3038823D5
:1011B000B1F1D091B8001091BA008091BC008A7B47
:1011C0008093BC0060E082E10E94510860E083E10E
:1011D0000E9451081092ED03C093EF031092EE03AA
:1011E00061E082E10E94510861E083E10E945108C0
:1011F0008091B9008E7F8093B9008091B9008D7F76
:101200008093B90088E48093B80085E48093BC00A3
:101210001093BA00D093B80002C01092ED03DF9192
:10122000CF911F910895CF93DF9390E0FC01EA578F
:10123000FA4F2491FC01EC55FA4F8491882361F117
:1012400090E0880F991FFC01E458FF4FC591D4919D
:10125000FC01E656FA4FA591B491611109C09FB700
:10126000F8948881209582238883EC912E230BC0EB
:10127000623061F49FB7F8948881322F30958323D0
:101280008883EC912E2B2C939FBF06C08FB7F894C8
:10129000E8812E2B28838FBFDF91CF910895823074
:1012A000910538F0880F991F880F991F05970197AE
:1012B000F1F708958F929F92AF92BF92CF92DF92F3
:1012C000EF92FF926B017C010E9431034B015C01A4
:1012D000C114D104E104F104F1F00E943103DC01F6
:1012E000CB0188199909AA09BB09883E9340A10539
:1012F000B10570F321E0C21AD108E108F10888EEC7
:10130000880E83E0981EA11CB11CC114D104E10415
:10131000F10419F7DDCFFF90EF90DF90CF90BF90F1
:10132000AF909F908F9008951F920F920FB60F92DB
:1013300011242F933F938F939F93AF93BF938091EB
:10134000190490911A04A0911B04B0911C043091CF
:10135000130423E0230F2D3720F40196A11DB11DA6
:1013600005C026E8230F0296A11DB11D209313048A
:101370008093190490931A04A0931B04B0931C0447
:101380008091140490911504A0911604B091170453
:101390000196A11DB11D8093140490931504A09390
:1013A0001604B0931704BF91AF919F918F913F9115
:1013B0002F910F900FBE0F901F9018950F931F93B2
:1013C000CF93DF931F92CDB7DEB78C01698360E0C6
:1013D000FC01868D0E94510841E050E0BE016F5F24
:1013E0007F4FF801838D948D0E944A110F90DF91F9
:1013F000CF911F910F9108951F93CF93DF93EC012D
:10140000162F60E20E94DE09111102C06CE001C0DB
:101410006DE0CE01DF91CF911F910C94DE091F92F8
:101420000F920FB60F9211242F933F934F935F9318
:101430006F937F938F939F93AF93BF93EF93FF939C
:101440008091B900887F803609F49CC068F58832A5
:1014500009F45BC090F4803109F454C038F4882357
:1014600009F4F2C0883009F44DC0F2C0883109F4A3
:101470004CC0803209F45DC0EBC0803409F468C010
:1014800048F4803309F455C0883309F0E1C08093F3
:10149000EC03D4C0803509F44FC0883509F45DC031
:1014A000883409F0D5C0D2C0883909F4C3C0A8F483
:1014B000883709F467C038F4883609F463C0803788
:1014C00009F460C0C5C0883809F4B4C0803909F493
:1014D0005FC0803809F0BCC05BC0803B09F484C0A9
:1014E00038F4803A09F466C0883A09F47DC0B0C087
:1014F000803C09F4A3C0883C09F4A0C0883B09F4EF
:1015000086C0A6C08091120410C0909111048091F1
:101510001004981770F5E091110481E08E0F80930C
:101520001104F0E0E051FC4F80818093BB0085EC1A
:1015300082C08093EC038AC0E091110481E08E0F99
:10154000809311048091BB00F0E0E051FC4F808358
:1015500090911104809110046AC0E091110481E01F
:101560008E0F809311048091BB00F0E0E051FC4F9E
:1015700080838091EF03811169C081E08093EE0345
:1015800084EA5DC083E08093ED031092EB03CFCF3C
:101590008091EB03803208F04DC0E091EB0381E0D5
:1015A0008E0F8093EB038091BB00F0E0E553FC4F7E
:1015B0008083BDCF85EC8093BC001092ED038091B9
:1015C000EB03803230F4E091EB03F0E0E553FC4FA5
:1015D00010826091EB0370E08BEC93E0E0E0F0E0D0
:1015E00009951092EB0334C084E08093ED031092D0
:1015F000CA031092C903E0E0F0E009958091C903A5
:10160000811105C081E08093C9031092A903E09184
:10161000CA0381E08E0F8093CA03F0E0E755FC4FC8
:1016200080818093BB009091CA038091C903981771
:1016300008F47DCF85E88093BC000AC085EC8093D8
:10164000BC001092ED0304C01092EC030E949E08AF
:10165000FF91EF91BF91AF919F918F917F916F918A
:101660005F914F913F912F910F900FBE0F901F9060
:1016700018958F929F92AF92BF920F931F93CF9323
:10168000DF93CDB7DEB7A1970FB6F894DEBF0FBEDC
:10169000CDBF19A2423008F44AE08E010F5D1F4F02
:1016A000842E912CA12CB12CA50194010E946B18C1
:1016B000E62FB901CA0101501109EA3014F4E05DC6
:1016C00001C0E95CD801EC93232B242B252B61F777
:1016D000C8010E947B12A1960FB6F894DEBF0FBE20
:1016E000CDBFDF91CF911F910F91BF90AF909F9091
:1016F0008F900895CF93DF93EC01FB0144815581D6
:10170000608171810E94DB07811103C0CE010E94BC
:101710000908CE01DF91CF910895EF92FF920F93C8
:101720001F93CF93DF93CDB7DEB762970FB6F894D0
:10173000DEBF0FBECDBF8C01CB01F801118210823C
:1017400013821282158214824AE09E012F5F3F4F5E
:101750007901B9010E942116F70101900020E9F7F3
:101760003197AF014E195F09B701C8010E941B08EC
:1017700062960FB6F894DEBF0FBECDBFDF91CF915A
:101780001F910F91FF90EF9008952F923F924F92EB
:101790005F926F927F928F929F92AF92BF92CF9201
:1017A000DF92EF92FF920F931F93CF93DF93CDB70A
:1017B000DEB72B970FB6F894DEBF0FBECDBF87E222
:1017C00094E098878F8327E3C22E24E0D22EE3E2B1
:1017D000F4E0FB87EA8786017F011C011986F1018D
:1017E00041905190619071901F01F60127A130A5A1
:1017F00041A552A5C301B2010E94B1174B015C0182
:1018000020E030E0A9010E944D1818165CF42AE08F
:1018100037ED43E25CE3C501B4010E944D18181690
:101820008CF00AC02AE037ED43E25CEBC501B4015D
:101830000E94561687FD06C0F7019081F80187A91E
:10184000981759F0F60147A250A661A672A6F701B3
:101850008081F80187ABF1E0F98784E0C80ED11CE4
:101860009FEFE91AF90A0F5F1F4FE7E32E16E4E036
:101870003E0609F0B4CFF985FF2309F417C1E12C26
:10188000F12C00E310E024E530E040E050E060E0BF
:1018900070E087E394E00E943E0581E080934B0472
:1018A00080934C0481E090E090934A048093490433
:1018B0009093480480934704812C912C5401839485
:1018C00000E010E010924404109243041093460488
:1018D00000934504EA85FB858191FB87EA878111A6
:1018E00003C06CE773E002C069E773E0CE010196C4
:1018F0000E943C0882E993E00E947B124AE0C50105
:10190000B4010E94390B20E030E0A901EF81F88595
:1019100060817181828193810E94561687FF03C086
:101920008FE793E002C08BE993E00E947B12EF8186
:10193000F885C190D190E190F190F887EF83A701ED
:101940009601C701B6010E945218882319F081E858
:1019500093E01AC026013701E89477F82FEF3FEFA4
:101960004FE75FE7C301B2010E94521881110FC017
:101970002FEF3FEF4FE75FE7C301B2010E9456161A
:1019800018162CF485E893E00E947B1276C02FEFA6
:101990003FEF4FE75FE4C701B6010E944D181816EC
:1019A0001CF489E893E0F0CF2FEF3FEF4FE75FECB7
:1019B000C701B6010E94561687FDF3CF20E030E044
:1019C000A901C701B6010E94561687FF09C06DE242
:1019D00087E394E00E940307F7FAF094F7F8F09495
:1019E0002AE037ED43EA5BE3C701B6010E94B21774
:1019F0002B013C010E941E186B017C010E945B16AA
:101A00009B01AC01C301B2010E94B1172B013C0143
:101A10004AE0C701B6010E94390B6EE287E394E009
:101A20000E94030720E030E040E251E4C301B2012C
:101A30000E94BC162B013C010E941E186B01E12C78
:101A4000F12C4AE0C701B6010E94390BC701B6016B
:101A50000E945B169B01AC01C301B2010E94B11749
:101A600020E030E040E251E40E94BC160E941E18C3
:101A700080E090E04AE00E94390B8DE893E00E94FC
:101A80007B12CE0101960E94A312CE0101960E9404
:101A90009B12045F1F4FFFEF8F1A9F0AAF0ABF0A06
:101AA0000033110509F00ECF0E94F4112B960FB6EA
:101AB000F894DEBF0FBECDBFDF91CF911F910F9184
:101AC000FF90EF90DF90CF90BF90AF909F908F905E
:101AD0007F906F905F904F903F902F900895BF92AE
:101AE000CF92DF92EF92FF920F931F93CF93DF93EA
:101AF000CDB7DEB762970FB6F894DEBF0FBECDBF8D
:101B000093E2C92E94E0D92EE7E3F4E0D60180E019
:101B10009D9123AD921711F093AF81E0319694E03F
:101B2000EB33F907A9F7882309F4B7C0E12CF12CAE
:101B300000E110E024E530E042E350E060E070E0D6
:101B400087E394E00E943E0581E080934B048093FC
:101B50004C0481E090E090934A0480934904909370
:101B6000480480934704109244041092430482E393
:101B700090E090934604809345048E01035F1F4FCD
:101B800060EA73E0C8010E943C08EE24E394F12C63
:101B9000B12CF60181916F01882309F446C0B70189
:101BA000CE010196BB2001F10E948D0B60E973E02C
:101BB000CE0107960E943C08BE016F5F7F4FCE01A9
:101BC00007960E947A0BFC014481558160817181E6
:101BD000C8010E94DB07CE0107960E949B12CE012E
:101BE00001960E949B1221C00E948D0B62E973E056
:101BF000CE0107960E943C08BE016F5F7F4FCE0169
:101C000007960E947A0BFC014481558160817181A5
:101C1000C8010E94DB07CE0107960E949B12CE01ED
:101C200001960E949B12BB24B394FFEFEF1AFF0AA8
:101C300085E0E816F10409F0ACCFBB2029F165E995
:101C400073E0CE0101960E943C08B801CE010196D6
:101C50000E947A0B8017910779F0FC0160817181F5
:101C60006115710531F044815581C8010E941B083E
:101C700003C0C8010E940908CE0101960E949B1270
:101C8000C8010E94A31204C08DE693E00E948D1249
:101C90000E94F411C8010E949B1262960FB6F8943C
:101CA000DEBF0FBECDBFDF91CF911F910F91FF908F
:101CB000EF90DF90CF90BF9008952F923F924F9278
:101CC0005F926F927F928F929F92AF92BF92CF92CC
:101CD000DF92EF92FF920F931F93CF93DF93CDB7D5
:101CE000DEB76B970FB6F894DEBF0FBECDBF9B8FEC
:101CF0008A8F1B014A01D22E198708873701A982D2
:101D0000DC0159962D913C915A972115310509F026
:101D1000FFC018968D919C911997681779070CF060
:101D2000E7C11A968D919C911B97481759070CF0A3
:101D3000DFC1EC2DF0E0FB83EA839B0146E0C49E0B
:101D4000200D311D11243D872C87121613060CF02F
:101D5000CFC16A2D70E07B876A8783E0660F771FAB
:101D60008A95E1F77F876E87CB01880D991D18163C
:101D700019060CF0BDC158968C91811104C08FEAF0
:101D80008D1508F4D394AA8DBB8DED91FC9111971C
:101D90000284F385E02DCD010995B5E0DB9EC001FD
:101DA0001124EC2DF0E0F98BE88B91012B5F3F4F74
:101DB0003B8B2A8B3D822C822101AC0142195309B5
:101DC0005D8B4C8B7981672F70E07F8B6E8BC401AC
:101DD0000896998F888FEC89FD89E40DF51DEA57E7
:101DE000FF4FD49054019F828E82D0FE16C0AA8DE0
:101DF000BB8DED91FC91B1E0CB1209C0298121305E
:101E000031F40484F585E02D2885398519C00684D0
:101E1000F785E02DE884F9841DC04885598546156D
:101E2000570519F1AA8DBB8DED91FC91B1E0CB1254
:101E30000DC02981213051F40484F585E02D9301F2
:101E4000A501B2018A8D9B8D09950FC00684F78587
:101E5000E02D73010A851B852A813B814E815F81BC
:101E60006C817D818A8D9B8D0995D6943FEFA31A55
:101E7000B30A4E815F816E897F89460F571F5F834A
:101E80004E83888D998DA816B90609F0AECF9FEFC5
:101E9000491A590AAC81BD81E889F989AE0FBF1F83
:101EA000BD83AC832A893B894216530609F093CF40
:101EB000488559854615570509F4F8C0AA8DBB8D8C
:101EC000ED91FC91B1E0CB1211C02981213071F468
:101ED000B1016B5F7F4F0088F189E02D830128E01D
:101EE00030E0A4018A8D9B8D0995E0C06C857D85CD
:101EF0004A815B81641B750B0684F785E02D7301B5
:101F00000E851F859A01A4018A8D9B8D0995CEC0EF
:101F1000F9013496E491DE1AF90132968591949193
:101F2000B7E0DB9E800D911D1124F90125913491BC
:101F30003B8B2A8BFC01259134915901FC0132968F
:101F40005490319634913C87329674903196149126
:101F500041E04C1518F05981523068F0672D072C7C
:101F6000000C770B7D836C83812F012E000C990B65
:101F70009B838A8304C01B821A821D821C82AA8DC5
:101F8000BB8DED91FC9111970284F385E02DCD017D
:101F90000995412CD12C612CF981EF2FF0E0FF83C2
:101FA000EE832C2D30E03B872A87A401410F511D81
:101FB00017FD5A955F8B4E8BB101670D711D77FC34
:101FC0007A95798F688F7C85671608F06FC0262D0B
:101FD00030E04A815B81420F531FAE81BF81A49FD5
:101FE000C001A59F900DB49F900D1124F401E80F3E
:101FF000F91FF98BE88B842D712C4E895F89420F74
:10200000531F5D8B4C8B751408F04DC051E0580F79
:102010005E87877041F4C5010196EA89FB89EA0D64
:10202000FB1DD4905C01D7FE3AC061E0C61216C019
:102030007981713099F4AA8DBB8DED91FC91119746
:102040000484F585E02D288539854C895D89688D66
:10205000798D670D711DCD01099521C08C819D8100
:10206000870D911DEA85FB858E9FB0018F9F700DB6
:102070009E9F700D1124620D731DAA8DBB8DED9175
:10208000FC9111970684F785E02DE884F9840E8190
:102090001F812A853B8548895989CD010995DD0C29
:1020A00073948E85B0CF450C63948DCFAA8DBB8D74
:1020B000ED91FC9111970688F789E02DCD016B9683
:1020C0000FB6F894DEBF0FBECDBFDF91CF911F9149
:1020D0000F91FF90EF90DF90CF90BF90AF909F90C7
:1020E0008F907F906F905F904F903F902F900994CA
:1020F0006B960FB6F894DEBF0FBECDBFDF91CF91C8
:102100001F910F91FF90EF90DF90CF90BF90AF9015
:102110009F908F907F906F905F904F903F902F9007
:102120000895FC0120812EBD0DB407FEFDCF2EB514
:10213000FC01208308959F92AF92BF92CF92DF92CD
:10214000EF92FF920F931F93CF93DF93EC016B01FC
:1021500088859985892B11F010E801C011E0F601FE
:102160009080892D8123AA24A3948111A12C2C81F4
:102170003D814E815F8160E271EA87E090E00E94DC
:102180006B18022FB12CE22EF12C002319F0C7019D
:102190000E944F098A85877FB9F58D858F3FB9F0F9
:1021A000992D912381E009F480E08A1581F0EF8573
:1021B000F8898F89992331F09081892B8083AA2413
:1021C000A39405C09081809589238083A12CE989FF
:1021D000FA899081898D892B8083002319F0C701AA
:1021E0000E944F098E858F3F39F0EB89FC899081E1
:1021F000888D892309F0B12AE989FA899081898D2E
:102200008095892380832CC0E989FA899081898D02
:10221000892B8083002319F0C7010E944F098D8507
:102220008F3F69F0EF85F8898F89992D912319F0F7
:102230009081892B03C09081809589238083E989CF
:10224000FA899081898D8095892380838E858F3F3F
:1022500039F0EB89FC899081888D892309F0B12AB6
:102260008E858F3F11F0F601B08288859985892B84
:1022700079F4110F111189CFDF91CF911F910F9137
:10228000FF90EF90DF90CF90BF90AF909F90089518
:102290001695F0CFAF92BF92CF92DF92EF92FF925E
:1022A0000F931F93CF93DF931F92CDB7DEB78C01AF
:1022B0005B016A01DC018D919C911197892B41F0A2
:1022C0001296ED91FC911397908181819CBD8DBDFB
:1022D000F80183858F3F19F060E00E945108750175
:1022E000CA0CDB1CEC14FD04A9F0D7018D917D0113
:1022F0008983F80180819181892B29F0CE01019693
:102300000E949110EFCFBE016F5F7F4FC8010E9406
:102310009B10E8CFD8011B968C918F3F19F061E09C
:102320000E94510881E00F90DF91CF911F910F9192
:10233000FF90EF90DF90CF90BF90AF900895CF9334
:10234000C82F87FDCFE7C093560461E287E394E08E
:102350000E94DE096C2F606887E394E00E94DE092A
:1023600060E287E394E0CF910C94DE09CF938091F3
:10237000540487FD13C061E00E94130960E080915E
:1023800054040E94510861E070E080E090E00E94F7
:102390005A0961E0809154040E945108C091570489
:1023A000C83008F0C7E0C093570461E287E394E0C7
:1023B0000E94DE096C2F606187E394E00E94DE09D1
:1023C00060E287E394E00E94DE09809156040E9457
:1023D0009F1160E287E394E00E94DE096CE087E3EE
:1023E00094E0CF910C94DE091F93CF93DF939091EB
:1023F0005804992361F0809159048F5F891718F46C
:102400008093590404C0109259040E94B611D091CF
:102410005C04D695D695D69580915D048695869573
:10242000869590E02D2F30E08217930764F16D2F91
:10243000606487E394E00E94DE09C0915A04109121
:102440005B046C2F606887E394E00E94DE0961E022
:10245000809155040E945108412F50E06C2F70E08C
:10246000461B570B4F5F5F4F84E5D89F600D711D72
:10247000112460507F4F80915204909153040E9428
:102480004A11DF5FC9CF60E487E394E00E94DE0970
:1024900083E580935A0410925B048FE280935C047E
:1024A00010925D04DF91CF911F91089588EF91E024
:1024B000E0E0F1E0DF019C011D9221503040E1F7A6
:1024C00010925A0480915B04833508F483E580936D
:1024D0005B0410925C0480915D048F3208F48FE2FB
:1024E00080935D04109244041092430410924604B9
:1024F000109245040895009769F0FC0101900020B6
:10250000E9F73197AF01481B590BBC0187E394E011
:102510000C94070380E090E00895CF93DF930E942E
:102520007B12EC018EE993E00E947B128C0F9D1FC1
:10253000DF91CF910895FC0180819181009711F086
:102540000C943F190895CF93DF93FC01448155818A
:102550006081718187E394E00E940703EC018EE9BA
:1025600093E00E947B128C0F9D1FDF91CF91089505
:10257000789484B5826084BD84B5816084BD85B55E
:10258000826085BD85B5816085BD80916E0081606A
:1025900080936E0010928100809181008260809310
:1025A0008100809181008160809381008091800012
:1025B0008160809380008091B10084608093B1003D
:1025C0008091B00081608093B00080917A00846037
:1025D00080937A0080917A00826080937A00809163
:1025E0007A00816080937A0080917A00806880937D
:1025F0007A001092C100C0915204D09153048B858F
:102600008F3F39F061E00E94130961E08B850E94E1
:10261000510888819981892B09F434C01FB7F89437
:1026200080911804811127C0EEEAF5E08491E0E979
:10263000F5E09491E82FF0E0EE0FFF1FE458FF4F14
:10264000A591B491EC91E92321F461E08AE00E9424
:10265000510861E08AE00E9413098CB580618CBD4D
:102660008CB580648CBD61E08DE00E94130961E04F
:102670008BE00E941309809118048F5F80931804E7
:102680001FBF1DC061E08C850E9413098A858B7F66
:1026900011F460E001C061E08C850E9451088D85D5
:1026A0008F3F39F061E00E94130961E08D850E943F
:1026B00051088E858F3F19F060E00E94130981E078
:1026C0008B8F61E0809155040E941309809154041E
:1026D00087FD03C061E00E94130984E080935704E2
:1026E00088E28093560410925804109259040E9474
:1026F000B61110925A0480915B04833508F483E587
:1027000080935B0410925C0480915D048F3208F426
:102710008FE280935D040E94F4118CE30E949F116C
:102720000E9456120E94F41181E080934B04809322
:102730004C0481E090E090934A0480934904909384
:10274000480480934704109244041092430410926A
:1027500046041092450484E493E00E948D128CE5B7
:1027600093E00E948D120E94F41160ED77E080E00A
:1027700090E00E945A090E9456120E94F411CEEF76
:10278000D2E01881229661E0812F0E94130960E057
:10279000812F0E94510803E0C630D00791F760E016
:1027A0008EE00E94130960E08FE00E94130960E050
:1027B00080E10E94130960E081E10E9413090E94F8
:1027C000C50B0E946F0D412C512C28EC622E21EC80
:1027D000722E2FB7F8948091190490911A04A09149
:1027E0001B04B0911C042FBF40911F045091200482
:1027F00060912104709122048C019D01041B150B32
:10280000260B370BB901A801483853416105710502
:1028100008F44EC180931F0490932004A0932104D8
:10282000B093220480911D0490911E040196909310
:102830001E0480931D0464E070E00E9457188130EC
:10284000910509F45DC064F5892B09F0B7C084EAED
:1028500090E7A5E4B1E48093270490932804A09323
:102860002904B0932A0400E010E020E731E400934B
:102870002B0410932C0420932D0430932E0484EA0F
:1028800090E7A5EBB0E480932F0490933004A093DD
:102890003104B093320486E696E6AEE9B1E47DC039
:1028A0008230910509F455C0039709F087C000E014
:1028B00010E026E931E400932704109328042093C4
:1028C000290430932A0480E090E0A0EAB1E48093E8
:1028D0002B0490932C04A0932D04B0932E0480E03D
:1028E00090E0A0EBB1E480932F0490933004A09388
:1028F0003104B093320400E010E028E931E456C01E
:1029000080E090E0A0E2B1E4809327049093280453
:10291000A0932904B0932A0400E010E024EB31ECEA
:1029200000932B0410932C0420932D0430932E0439
:1029300081EE9AE7ACEFB0E480932F0490933004DB
:10294000A0933104B093320400E010E02CEA31E4AB
:102950002DC080E090E0A8ECB1E480932704909330
:102960002804A0932904B0932A0440922B04509287
:102970002C0460922D0470922E0400E010E020EFF1
:1029800031E400932F0410933004209331043093EA
:10299000320480E090E0A0EFB1EC80933304909398
:1029A0003404A0933504B093360408C00093330474
:1029B00010933404209335043093360487E2C82EF4
:1029C00084E0D82E93E2E92E94E0F92E0EEF12E087
:1029D000E70133243394D6018D909D90AD90BD9046
:1029E0006D0120E030E040EA51ECC501B4010E94E5
:1029F000561687FD0AC020E030E040EA51E4C501E8
:102A0000B4010E944D1818162CF4388261E0F801C8
:102A1000808104C0188260E0D8018C910E94510826
:102A200021960E5F1F4FB4E0C732DB07A1F60E946C
:102A3000C50BF70181917F01811142C0F7E2EF16CA
:102A4000F4E0FF06B1F7E12CF12C00E110E024E501
:102A500030E042E350E060E070E087E394E00E9401
:102A60003E0581E080934B0480934C0481E090E02C
:102A700090934A04809349049093480480934704B8
:102A8000109244041092430482E390E09093460431
:102A9000809345048DE693E00E948D120E94F4110C
:102AA00010927204109273041092740410927504C0
:102AB00080E090E0892B09F48CCE0E94000089CE42
:102AC0000E946F0DF5CFCF93DF93E6E7F4E013821A
:102AD000128288EE93E0A0E0B0E084839583A68321
:102AE000B7838AE093E091838083C7E3D4E01B82BD
:102AF0001A8224E530E03D832C8380E390E09F83BD
:102B00008E83398728879B878A871E8A1D861C8625
:102B10001F861E8681E08D8B8C8B2FEF3FEF3B8BCA
:102B20002A8B398B288B8F8B188E1A8E198E8CE1FD
:102B300093E0998388838CE190E00E94A718DC01E0
:102B400011961C921E9213961C921E9212978AE066
:102B50001B968C931B978DE01C968C931C978FEF84
:102B60001E968C931E978BE01D968C931D97EEEA14
:102B7000F5E0E491F0E0EE0FFF1FE656FA4F859185
:102B8000949156969C938E935597E0E9F5E0E491E5
:102B90005A96EC935A97EFEAF5E0E491F0E0EE0FE5
:102BA000FF1FE656FA4F8591949150969C938E9311
:102BB0001F97E1E9F5E0E4915796EC935797E1EB25
:102BC000F5E0E491F0E0EE0FFF1FE656FA4F859135
:102BD000949152969C938E935197E3E9F5E0E4919A
:102BE0005996EC93599740E059E06DE370E01496E4
:102BF0004D935D936D937C93179781E090E01996C8
:102C00009C938E9318971A961C921A975B961C9217
:102C10005B97BC8FAB8F89E08E8F88E08D8F80E1D2
:102C2000EEE5F4E0DF011D928A95E9F71FAA18AEE0
:102C300019AE1AAE1BAE1CAE1DAE1EAEDF91CF910B
:102C40000895BB274A3031F4992322F4BDE29095D0
:102C500081959F4F0C942D16BB27FB015527AA2762
:102C6000880F991FAA1FA41710F0A41B8395505119
:102C7000B9F7A05DAA3308F0A95DA193009779F791
:102C8000B111B1931192CB010C944616DC01FC01F9
:102C9000672F71917723E1F7329704C07C916D9390
:102CA00070836291AE17BF07C8F308950E9498160B
:102CB00008F481E00895E89409C097FB3EF49095EC
:102CC0008095709561957F4F8F4F9F4F9923A9F005
:102CD000F92F96E9BB279395F69587957795679594
:102CE000B795F111F8CFFAF4BB0F11F460FF1BC0D8
:102CF0006F5F7F4F8F4F9F4F16C0882311F096E96B
:102D000011C0772321F09EE8872F762F05C0662318
:102D100071F096E8862F70E060E02AF09A95660FD1
:102D2000771F881FDAF7880F9695879597F908958A
:102D3000990F0008550FAA0BE0E8FEEF16161706CC
:102D4000E807F907C0F012161306E407F50798F034
:102D5000621B730B840B950B39F40A2661F0232B4D
:102D6000242B252B21F408950A2609F4A140A695C9
:102D70008FEF811D811D08950E94CF160C9440177E
:102D80000E94321738F00E94391720F0952311F075
:102D90000C9429170C942F1711240C9474170E946B
:102DA000511770F3959FC1F3950F50E0551F629F27
:102DB000F001729FBB27F00DB11D639FAA27F00D94
:102DC000B11DAA1F649F6627B00DA11D661F829FBB
:102DD0002227B00DA11D621F739FB00DA11D621FA0
:102DE000839FA00D611D221F749F3327A00D611DBD
:102DF000231F849F600D211D822F762F6A2F11249F
:102E00009F5750409AF0F1F088234AF0EE0FFF1FD1
:102E1000BB1F661F771F881F91505040A9F79E3F28
:102E2000510580F00C9429170C9474175F3FE4F35C
:102E3000983ED4F3869577956795B795F795E7957E
:102E40009F5FC1F7FE2B880F911D9695879597F987
:102E5000089597F99F6780E870E060E008959FEF1C
:102E600080EC089500240A94161617061806090621
:102E7000089500240A9412161306140605060895F0
:102E8000092E0394000C11F4882352F0BB0F40F478
:102E9000BF2B11F460FF04C06F5F7F4F8F4F9F4FB8
:102EA000089557FD9058440F551F59F05F3F71F03A
:102EB0004795880F97FB991F61F09F3F79F08795A1
:102EC0000895121613061406551FF2CF4695F1DF2A
:102ED00008C0161617061806991FF1CF86957105BA
:102EE000610508940895E894BB2766277727CB01EE
:102EF00097F908952F923F924F925F926F927F922F
:102F00008F929F92AF92BF92CF92DF92EF92FF92F9
:102F10000F931F93CF93DF93CDB7DEB7CA1BDB0BA5
:102F20000FB6F894DEBF0FBECDBF09942A8839884A
:102F300048885F846E847D848C849B84AA84B98451
:102F4000C884DF80EE80FD800C811B81AA81B9815D
:102F5000CE0FD11D0FB6F894DEBF0FBECDBFED0171
:102F600008955058BB27AA270E94C9170C944017F0
:102F70000E94321738F00E94391720F039F49F3F31
:102F800019F426F40C942F170EF4E095E7FB0C943B
:102F90002917E92F0E94511758F3BA1762077307D0
:102FA0008407950720F079F4A6F50C9473170EF4B6
:102FB000E0950B2EBA2FA02D0B01B90190010C0149
:102FC000CA01A0011124FF27591B99F0593F50F461
:102FD000503E68F11A16F040A22F232F342F4427B9
:102FE000585FF3CF469537952795A795F0405395B1
:102FF000C9F77EF41F16BA0B620B730B840BBAF081
:103000009150A1F0FF0FBB1F661F771F881FC2F7EB
:103010000EC0BA0F621F731F841F48F487957795FF
:103020006795B795F7959E3F08F0B0CF9395880FB9
:1030300008F09927EE0F9795879508950E945917E4
:1030400088F09F5798F0B92F9927B751B0F0E1F069
:10305000660F771F881F991F1AF0BA95C9F714C019
:10306000B13091F00E947317B1E008950C9473177A
:10307000672F782F8827B85F39F0B93FCCF3869552
:1030800077956795B395D9F73EF4909580957095AF
:1030900061957F4F8F4F9F4F08950E94981608F4B7
:1030A0008FEF08950E949816880B990B089597FB4F
:1030B000072E16F4009407D077FD09D00E948D18D2
:1030C00007FC05D03EF4909581959F4F089570952B
:1030D00061957F4F0895A1E21A2EAA1BBB1BFD012B
:1030E0000DC0AA1FBB1FEE1FFF1FA217B307E407E7
:1030F000F50720F0A21BB30BE40BF50B661F771F3F
:10310000881F991F1A9469F760957095809590951E
:103110009B01AC01BD01CF010895AA1BBB1B51E16E
:1031200007C0AA1FBB1FA617B70710F0A61BB70B37
:10313000881F991F5A95A9F780959095BC01CD01DC
:103140000895EE0FFF1F0590F491E02D09940F9361
:103150001F93CF93DF938230910510F482E090E0CB
:10316000E0918404F091850420E030E0A0E0B0E03C
:10317000309719F140815181028113814817590715
:10318000C8F08417950769F4109731F012960C93E4
:10319000129713961C9327C0009384041093850400
:1031A00022C02115310519F04217530718F49A016E
:1031B000BD01EF01DF01F801DBCF21153105F9F089
:1031C000281B390B2430310580F48A819B816115DD
:1031D000710521F0FB019383828304C090938504E1
:1031E00080938404FE01329644C0FE01E20FF31F77
:1031F0008193919322503109398328833AC02091D9
:10320000820430918304232B41F42091FA023091FF
:10321000FB0230938304209382042091F8023091C2
:10322000F9022115310541F42DB73EB74091FC025A
:103230005091FD02241B350BE0918204F091830430
:10324000E217F307A0F42E1B3F0B2817390778F07D
:10325000AC014E5F5F4F2417350748F04E0F5F1FDC
:1032600050938304409382048193919302C0E0E0E1
:10327000F0E0CF01DF91CF911F910F910895CF938F
:10328000DF93009709F481C0FC0132971382128208
:10329000A0918404B0918504109781F4208131813C
:1032A000820F931F209182043091830428173907DD
:1032B00051F5F0938304E093820467C0ED0120E0B0
:1032C00030E0CE17DF0740F44A815B819E01411553
:1032D0005105F1F0EA01F5CFD383C28340815181DA
:1032E000840F951FC817D90759F488819981840FD5
:1032F000951F0296918380838A819B819383828329
:103300002115310529F4F0938504E09384043DC030
:10331000E901FB83EA8349915991C40FD51FEC174A
:10332000FD0761F480819181840F951F0296E90168
:1033300099838883828193819B838A83E0E0F0E094
:1033400012968D919C911397009719F0FD01DC0165
:10335000F7CF8D919C9111979D012E5F3F4F820F6A
:10336000931F20918204309183042817390769F450
:10337000309729F4109285041092840402C01382BD
:103380001282B0938304A0938204DF91CF910895B9
:10339000A0E0B0E0EEECF9E10C947E17EC010097B0
:1033A00021F4CB010E94A718B4C0FC01E60FF71F5F
:1033B0009C0122503109E217F30708F4A8C0D90193
:1033C0000D911C91119706171707B0F005301105E4
:1033D00008F49BC0C80104978617970708F495C0A6
:1033E00002501109061B170B019311936D937C93E7
:1033F000CF010E943F1989C05B01A01AB10A4C019C
:10340000800E911EA0918404B0918504612C712CD2
:10341000E12CF12C109709F446C08D919C911197E5
:10342000A815B905B1F56C0142E0C40ED11CCA144F
:10343000DB0478F14C018A189B08640142E0C40E59
:10344000D11C1296BC9012971396AC91B5E0CB1696
:10345000D10440F0B282A38391828082D9016D931E
:103460007C9309C00E5F1F4F800F911FF90191835C
:103470008083EB2DFA2FE114F10431F0D70113967C
:10348000FC93EE93129741C0F0938504E09384047B
:103490003CC06816790608F43C017D0112960D9037
:1034A000BC91A02DB7CF809182049091830488169F
:1034B0009906E1F466167706C8F48091F8029091B7
:1034C000F902009741F48DB79EB74091FC025091EC
:1034D000FD02841B950BE817F907C8F4F0938304E9
:1034E000E0938204F901718360830FC0CB010E94D5
:1034F000A7187C01009759F0A801BE010E94931AF9
:10350000CE010E943F19C70104C0CE0102C080E075
:1035100090E0CDB7DEB7EEE00C949A1781E090E032
:10352000F8940C94A31AFB01DC0102C001900D92E7
:1035300041505040D8F70895FB01DC0101900D92F5
:0A3540000020E1F70895F894FFCF92
:10354A000000000000000000000000000000000071
:10355A000000000000000000000000000000000061
:10356A00000000000000C0E0F0F8FCFCFEFFFCE0F8
:10357A000000000000000000000000000000000041
:10358A000000000000000000000000000000000031
:10359A000000000000000000000000000000000021
:1035AA000000000000F8F8F8F8F8F8F8F8F8F8F869
:1035BA00F8F0F0E0E0C080C0FCFFFFFFFF7F3F7F34
:1035CA00FFFFFFFFFF0000000000000000000000F6
:1035DA0000000000000000000000000000000000E1
:1035EA0000000000000000000000000000000000D1
:1035FA00000000000000000000000F1F3F7FFFFFD7
:10360A00FFFFFFFFFFFFE7C7C7878F9F9FFFFFFFF0
:10361A00C1C0E0FCFFFFFFFFFFFCFCFCFCFEFEFE5E
:10362A00FCFCF8F8F0E0C0C0000000000000000058
:10363A000000000000000000000000000000000080
:10364A000000000000000000000000000000000070
:10365A000080C0E0F1FBFFFFFFFFFF7F1F0F0F8716
:10366A00E7FFFFFF1F1F3FF9F8F8F8F8F8F8FDFF2A
:10367A00FFFFFFFFFFFFFFFF7F3F0F070100000073
:10368A000000000000000000000000000000000030
:10369A000000000000000000000000000000000020
:1036AA00000000F0FEFFFFFFFFFFFFFFFFFFFFFE2E
:1036BA007E3F3F0F1FFFFFFFFCF0E0F1FFFFFFFF20
:1036CA00FFFCF001010101010101010000000000FD
:1036DA0000000000000000000000000000000000E0
:1036EA0000000000000000000000000000000000D0
:1036FA0000000000000000030303030303030301A7
:10370A0001010100000000000000030F1F3F7F7F3E
:10371A00FFFFFFFF7F7F1F03000000000000000083
:10372A00000000000000000000000000000000008F
:10373A0000000000000000000000860420000200D3
:10374A00030004000500000000002E042304D7062D
:10375A0015041C04190416040000000003070703DB
:10376A00D706D606560315041D06F50511060506E5
:10377A00240615044004FC09BC0583053E05210501
:10378A00B4045504566F6C74696D6574726F206465
:10379A006520342043616E616C657300496E69630C
:1037AA0069616C697A616E646F2E2E2E0053696EA0
:1037BA0020616C6572746173004143004443003AAE
:1037CA00006E616E00696E66006F766600205600B4
:1037DA002C20434800416C657274613A20000D0A3E
:0237EA000000DD
:00000001FF
