:100000000C945F030C9487030C9487030C94870370
:100010000C9487030C9487030C9487030C94870338
:100020000C9487030C9487030C9487030C94870328
:100030000C9487030C9487030C9487030C94870318
:100040000C94820B0C9487030C94020A0C94DC0928
:100050000C9487030C9487030C9487030C948703F8
:100060000C94FD0B0C94870300407A10F35A00A007
:10007000724E18090010A5D4E80000E87648170071
:1000800000E40B54020000CA9A3B000000E1F505B1
:10009000000080969800000040420F000000A086FB
:1000A00001000000102700000000E803000000002D
:1000B0006400000000000A000000000001000000D1
:1000C00000002C76D888DC674F0823DFC1DFAE59EB
:1000D000E1B1B796E5E3E453C63AE651997696E87E
:1000E000E6C28426EB898C9B62ED407C6FFCEFBC02
:1000F0009C9F40F2BAA56FA5F490055A2AF75C932D
:100100006B6CF9676DC11BFCE0E40D47FEF520E662
:10011000B500D0ED902E0300943577050080841E45
:10012000080000204E0A000000C80C333333330FA0
:10013000986E12831141EF8D2114893BE65516CF3D
:10014000FEE6DB18D1844B381BF77C1D901DA4BB49
:10015000E424203284725E228100C9F124ECA1E5FE
:100160003D27000000080002010000030407000012
:1001700000000000000000000000003E5B4F5B3EFE
:100180003E6B4F6B3E1C3E7C3E1C183C7E3C181C5C
:10019000577D571C1C5E7F5E1C00183C1800FFE753
:1001A000C3E7FF0018241800FFE7DBE7FF30483AF9
:1001B000060E2629792926407F050507407F05255B
:1001C0003F5A3CE73C5A7F3E1C1C08081C1C3E7FE3
:1001D00014227F22145F5F005F5F06097F017F00AA
:1001E0006689956A606060606094A2FFA2940804CA
:1001F0007E040810207E201008082A1C08081C2AEB
:1002000008081E101010100C1E0C1E0C30383E3842
:1002100030060E3E0E06000000000000005F0000E9
:100220000007000700147F147F14242A7F2A12235A
:100230001308646236495620500008070300001C6A
:100240002241000041221C002A1C7F1C2A08083E73
:100250000808008070300008080808080000606086
:100260000020100804023E5149453E00427F4000F4
:1002700072494949462141494D331814127F1027CC
:10028000454545393C4A494931412111090736491B
:10029000494936464949291E0000140000004034EF
:1002A00000000008142241141414141400412214F4
:1002B0000802015909063E415D594E7C1211127C1B
:1002C0007F494949363E414141227F4141413E7F7C
:1002D000494949417F090909013E414151737F085C
:1002E00008087F00417F41002040413F017F081402
:1002F00022417F404040407F021C027F7F04081063
:100300007F3E4141413E7F090909063E4151215E40
:100310007F09192946264949493203017F01033FD4
:100320004040403F1F2040201F3F4038403F631463
:1003300008146303047804036159494D43007F4165
:1003400041410204081020004141417F04020102A2
:1003500004404040404000030708002054547840C7
:100360007F284444383844444428384444287F385B
:100370005454541800087E090218A4A49C787F08DD
:1003800004047800447D40002040403D007F102858
:10039000440000417F40007C047804787C08040419
:1003A000783844444438FC1824241818242418FCB1
:1003B0007C08040408485454542404043F44243C56
:1003C0004040207C1C2040201C3C4030403C4428C5
:1003D0001028444C9090907C4464544C440008365F
:1003E00041000000770000004136080002010204CD
:1003F000023C2623263C1EA1A161123A4040207AED
:100400003854545559215555794122545478422134
:100410005554784020545579400C1E52721239556B
:100420005555593954545459395554545800004568
:100430007C410002457D420001457C407D12111245
:100440007DF0282528F07C545545002054547C54D8
:100450007C0A097F4932494949323A4444443A3294
:100460004A4848303A4141217A3A42402078009D3A
:10047000A0A07D3D4242423D3D4040403D3C24FFE6
:100480002424487E4943662B2FFC2F2BFF0929F695
:1004900020C0887E090320545479410000447D41E6
:1004A0003048484A32384040227A007A0A0A727D3F
:1004B0000D19317D2629292F28262929292630485A
:1004C0004D4020380808080808080808382F10C8C8
:1004D000ACBA2F102834FA00007B000008142A144C
:1004E0002222142A14085500550055AA55AA55AAC7
:1004F000FF55FF55FF000000FF00101010FF001413
:100500001414FF001010FF00FF1010F010F014146E
:1005100014FC001414F700FF0000FF00FF1414F493
:1005200004FC141417101F10101F101F1414141F94
:1005300000101010F0000000001F101010101F100D
:10054000101010F010000000FF101010101010100C
:100550001010FF10000000FF140000FF00FF00005B
:100560001F10170000FC04F414141710171414F4CF
:1005700004F40000FF00F714141414141414F7000A
:10058000F7141414171410101F101F141414F4145B
:100590001010F010F000001F101F0000001F1400CA
:1005A0000000FC140000F010F01010FF10FF1414F5
:1005B00014FF141010101F00000000F010FFFFFFC8
:1005C000FFFFF0F0F0F0F0FFFFFF0000000000FF81
:1005D000FF0F0F0F0F0F3844443844FC4A4A4A3487
:1005E0007E02020606027E027E026355494163389E
:1005F00044443C04407E201E2006027E020299A54F
:10060000E7A5991C2A492A1C4C7201724C304A4DAC
:100610004D303048784830BC625A463D3E494949E1
:10062000007E0101017E2A2A2A2A2A44445F44448A
:1006300040514A444040444A51400000FF0103E019
:1006400080FF000008086B6B083612362436060F50
:10065000090F06000018180000001010003040FFBD
:100660000101001F01011E00191D1712003C3C3C36
:100670003C000000000000000000230026002900CC
:100680000102040810204080010204081020010229
:100690000408102000000000250028002B0004049E
:1006A000040404040404020202020202030303031A
:1006B000030300000000240027002A00A4141124D2
:1006C0001FBECFEFD8E0DEBFCDBF25E0AEEBB3E07D
:1006D00001C01D92A535B207E1F713E0A0E0B1E03B
:1006E000E2EBF1E402C005900D92AE3BB107D9F701
:1006F00013E0CFE5D3E004C02197FE010E94DA1E8B
:10070000CE35D107C9F70E948A150C94D7200C94D6
:100710000000CF92DF92EF92FF920F931F93CF933F
:10072000DF936C017A018B01C0E0D0E0CE15DF05CC
:1007300081F0D8016D918D01D601ED91FC91019070
:10074000F081E02DC6010995892B11F02196EECF9D
:100750007E01C701DF91CF911F910F91FF90EF9024
:10076000DF90CF900895FC01538D448D252F30E00C
:10077000842F90E0821B930B541710F0CF960895AE
:1007800001970895FC01918D828D981761F0828DFB
:10079000DF01A80FB11D5D968C91928D9F5F9F73B5
:1007A000928F90E008958FEF9FEF0895FC01918D57
:1007B000828D981731F0828DE80FF11D858D90E0C4
:1007C00008958FEF9FEF0895FC01918D228D892F61
:1007D00090E0805C9F4F821B91098F739927089549
:1007E00088E494E00E94E40321E0892B09F420E0EE
:1007F000822F0895FC01848DDF01A80FB11DA35A3B
:10080000BF4F2C91848D90E001968F739927848F30
:10081000A689B7892C93A089B1898C918370806453
:100820008C93938D848D981306C00288F389E02DF4
:1008300080818F7D80830895EF92FF920F931F93A5
:10084000CF93DF93EC0181E0888F9B8D8C8D981383
:1008500005C0E889F989808185FD26C0F62E0B8DBB
:1008600010E00F5F1F4F0F731127E02E8C8DE812E1
:100870000CC00FB607FCFACFE889F989808185FFA3
:10088000F5CFCE010E94FA03F1CF8B8DFE01E80F68
:10089000F11DE35AFF4FF0829FB7F8940B8FEA895E
:1008A000FB89808180620AC09FB7F894EE89FF8936
:1008B0006083E889F98980818370806480839FBF29
:1008C00081E090E0DF91CF911F910F91FF90EF9029
:1008D0000895CF93DF93EC01888D8823C9F0EA89CE
:1008E000FB89808185FD05C0A889B9898C9186FD29
:1008F0000FC00FB607FCF5CF808185FFF2CFA88926
:10090000B9898C9185FFEDCFCE010E94FA03E7CF24
:10091000DF91CF91089580E090E0892B29F00E942B
:10092000F00381110C9400000895833081F028F4C5
:10093000813099F08230A1F008958730A9F0883095
:10094000B9F08430D1F4809180008F7D03C0809114
:1009500080008F7780938000089584B58F7702C0E0
:1009600084B58F7D84BD08958091B0008F7703C0DA
:100970008091B0008F7D8093B00008953FB7F894C8
:100980008091300490913104A0913204B0913304ED
:1009900026B5A89B05C02F3F19F00196A11DB11DDA
:1009A0003FBFBA2FA92F982F8827820F911DA11D15
:1009B000B11DBC01CD0142E0660F771F881F991F52
:1009C0004A95D1F70895FC01CA01D90177FD91C07C
:1009D00020853185621773070CF08BC057FD89C0E5
:1009E00022853385421753070CF083C026892230B5
:1009F00059F02330B1F02130D1F42FE230E0261B42
:100A0000370BBA01C90113C023E530E0A901461B29
:100A1000570BBA012FE230E0A901481B590BCA015C
:100A200006C043E550E0481B590BCB01BA01382FF3
:100A3000562F43A1641708F4462F43A344A145173A
:100A400008F4452F44A345A1341708F4432F45A3C8
:100A500046A1431708F4432F46A39C01AB2B21F179
:100A600097FF02C0295F3F4F53E0359527955A9570
:100A7000E1F744E5429FF001439FF00D11246E0F12
:100A80007F1FFB01E050FF4F68E070E00E94901E66
:100A900021E030E0A90102C0440F551F8A95E2F71A
:100AA000CA019081892B24C097FF02C0295F3F4F64
:100AB00043E0359527954A95E1F744E5429FF001DB
:100AC000439FF00D11246E0F7F1FFB01E050FF4F7D
:100AD00068E070E00E94901E21E030E0A90102C0B1
:100AE000440F551F8A95E2F7CA01809590818923AA
:100AF000808308954091E503262F30E0240F311DB7
:100B000021323105DCF4209109042430C9F4FC01C0
:100B100080E090E0861758F43091E5032191DC01E4
:100B2000AB53BC4FA30FB11D2C930196F3CF809113
:100B3000E503680F6093E50380E0089581E0089580
:100B400082E0089508958FEF9FEF08958FEF9FEF54
:100B500008958091BE0390E0919581959109089543
:100B6000CF93DF93CB01EA01642F0E947A05CE0177
:100B7000DF91CF910895CF93DF931F92CDB7DEB76A
:100B8000698361E0CE0101960E947A0581E090E0E0
:100B90000F90DF91CF9108950895FC016370668BEB
:100BA0008481958126813781613039F0633029F065
:100BB000918780873387228708953187208793879D
:100BC000828708956F927F928F929F92AF92BF9289
:100BD000CF92DF92EF92FF920F931F93CF93DF9309
:100BE000EC014B015A0169013801E881F981028465
:100BF000F385E02D0995E881F9810288F389E02DDC
:100C000087019601A501B401CE010995A501460D04
:100C1000571D41505109E881F9810288F389E02D7F
:100C20009601B401CE010995E881F9810088F18926
:100C3000E02D9301A501B401CE010995C80CD91C82
:100C4000B60161507109E881F9810088F189E02DD0
:100C50009301A501CE010995E881F9810688F789FC
:100C6000E02DCE01DF91CF911F910F91FF90EF907A
:100C7000DF90CF90BF90AF909F908F907F906F90BC
:100C800009948F929F92AF92BF92CF92DF92EF9290
:100C9000FF920F931F93CF93DF934C016B015A0187
:100CA000E901DC01ED91FC916217730781F40417EF
:100CB000150724F48B2D5801042F182F0A191B092E
:100CC00098012F5F3F4F048CF58DE02D12C0401727
:100CD000510709F52617370724F48D2D6901C62F12
:100CE000D82F9E012C193D092F5F3F4F068CF78DA1
:100CF000E02D8701A501B601C4010995DF91CF91CF
:100D00001F910F91FF90EF90DF90CF90BF90AF9029
:100D10009F908F9008950284F385E02D0995D4016A
:100D2000ED91FC910488F589E02D9E01A501B601A5
:100D3000C4010995D401ED91FC910688F789E02D55
:100D4000C401DF91CF911F910F91FF90EF90DF9041
:100D5000CF90BF90AF909F908F900994EF92FF92A9
:100D60000F931F93DC011A960D911C911B971896F7
:100D70002D913C911997ED91FC9100A0F1A1E02DEE
:100D80007B0140E050E060E070E009951F910F9119
:100D9000FF90EF9008954F925F926F927F928F92A3
:100DA0009F92AF92BF92CF92DF92EF92FF920F93FA
:100DB0001F93CF93DF936C012B015A013901480136
:100DC000DC01ED91FC910284F385E02D0995E201AF
:100DD000640C751CD601ED91FC91C615D7055CF429
:100DE0000088F189E02D87019401A501BE01C601AB
:100DF00009952196EFCF0688F789E02DC601DF918E
:100E0000CF911F910F91FF90EF90DF90CF90BF9007
:100E1000AF909F908F907F906F905F904F900994CC
:100E20008F929F92AF92BF92CF92DF92EF92FF92FA
:100E30000F931F93CF93DF93EC015B014A0169018C
:100E4000E881F9810284F385E02D099595012C0D47
:100E50003D1D21503109E881F9810488F589E02D93
:100E600078018401A401B501CE010995E881F981D9
:100E70000688F789E02DCE01DF91CF911F910F9168
:100E8000FF90EF90DF90CF90BF90AF909F908F90AA
:100E900009948F929F92AF92BF92CF92DF92EF927E
:100EA000FF920F931F93CF93DF93EC015B014A01F5
:100EB00069017801E881F9810284F385E02D0995C3
:100EC000C80CD91C860101501109E881F9810488F8
:100ED000F589E02D9501A401B501CE010995E881C0
:100EE000F9810688F789E02DCE01DF91CF911F911E
:100EF0000F91FF90EF90DF90CF90BF90AF909F90B9
:100F00008F900994EF92FF920F931F93DC01ED9164
:100F1000FC9100A0F1A1E02D09951F910F91FF9088
:100F2000EF9008950F931F93DC01ED91FC91068CD7
:100F3000F78DE02D09951F910F9108950F931F9341
:100F4000DC01ED91FC91048CF58DE02D09951F914C
:100F50000F910895DC01ED91FC910084F185E02D65
:100F600009942F923F924F925F926F927F928F924D
:100F70009F92AF92BF92CF92DF92EF92FF920F9328
:100F80001F93CF93DF9300D000D000D0CDB7DEB752
:100F90002C017E836D836A015901C801FC82EB82BA
:100FA0004801841A950A97FE03C091948194910890
:100FB00035012D813E81621A730A77FE03C0719458
:100FC00061947108681479045CF43A2D2B2D5C014E
:100FD000832F922F3D812E81DE82CD82C32ED22E91
:100FE000AD81BE81AA16BB065CF43C2D2D2D6C0193
:100FF000832F922F3D812E81BE82AD82A32EB22EF1
:1010000085012D813E81021B130B1C012C183D080C
:1010100037FE03C0319421943108780117FF03C0D3
:101020003FEFE31AF30AF594E794C816D9062CF0BB
:101030008FEF9FEF9A83898304C0A1E0B0E0BA8369
:10104000A9832D813E81A216B30624F1D201ED9130
:10105000FC910484F585E02D2B813C816814790492
:1010600024F44D815E81B60103C0A6016D817E81AD
:10107000C2010995E218F308F7FE06C029813A81FA
:10108000C20ED31EE00EF11E8D819E8101969E83BD
:101090008D83D7CF26960FB6F894DEBF0FBECDBF97
:1010A000DF91CF911F910F91FF90EF90DF90CF9044
:1010B000BF90AF909F908F907F906F905F904F9078
:1010C0003F902F900895089580E090E008950F9349
:1010D0001F93CF93DF93EC0188819981009729F0CA
:1010E0002A813B812617370788F48B016F5F7F4F7A
:1010F0000E940120009761F0998388831B830A83F3
:101100002C813D81232B11F4FC01108281E001C070
:1011100080E0DF91CF911F910F9108958F929F9260
:10112000AF92CF92EF92FF920F931F93CF93DF93E3
:10113000EC01262F898D9A8D009709F042C06A3004
:1011400059F41D861C862D898E859F8538E0239F46
:10115000800D911D112443C06D3009F4AAC08F8900
:101160008823C9F03C898C859D8546E0349F800D9D
:10117000911D1124488559854817590764F41D8627
:101180001C863D898E859F8548E0349F800D911D8A
:1011900011249F878E87EA88FB88088919894E85E4
:1011A0005F856C857D85AD88CC88CE010E94C80D99
:1011B0002C898C859D8536E0239F800D911D1124FF
:1011C0003EC06A3079F41D861C862D89FC01389654
:1011D000E4918E859F852E9F800D911D11249F8700
:1011E0008E8767C06D3009F464C0FC013496349179
:1011F000631708F45EC03296E491E61708F459C00C
:10120000462F431B342FFC0132968590949047E083
:10121000349F800C911C1124F40132963491319644
:10122000E491332311F0E1110DC0F4013496E491FF
:101230002C898C859D85E29F800D911D11249D87B1
:101240008C8737C0F401359644915F89552319F195
:101250005C89E32FF0E0E40FF11D47FDFA955E9FF6
:10126000B0015F9F700D11244C855D85460F571F9F
:10127000688579856417750774F41D861C863D8919
:10128000FC013896E4918E859F853E9F800D911DCF
:1012900011249F878E87EA88FB88088919894E85E3
:1012A0005F856C857D85AD88CC88CE010E94C80D98
:1012B000BCCF81E090E0DF91CF911F910F91FF9023
:1012C000EF90CF90AF909F908F900895EF92FF9204
:1012D0000F931F93CF93DF936115710511F480E095
:1012E0001CC041155105C1F07B01EC018C819D8131
:1012F0008A01080F191FB801CE010E9467088823D0
:1013000071F3288139818C819D81B701820F931FF0
:101310000E94D0201D830C8381E0DF91CF911F912B
:101320000F91FF90EF900895CF93DF93EC018881A8
:101330009981009711F00E94781F198218821D82EE
:101340001C821B821A82DF91CF910895EF92FF9247
:101350000F931F93CF93DF93EC017B018A01BA01B6
:101360000E946708811104C0CE010E94940907C041
:101370001D830C83B701888199810E94D020CE0102
:10138000DF91CF911F910F91FF90EF900895FC0195
:1013900011821082138212821582148261157105E6
:1013A00051F0FB0101900020E9F73197AF01461B96
:1013B000570B0C94A60908951F920F920FB60F9227
:1013C00011242F933F934F935F936F937F938F934A
:1013D0009F93AF93BF93EF93FF9388E494E00E94B1
:1013E000FA03FF91EF91BF91AF919F918F917F9100
:1013F0006F915F914F913F912F910F900FBE0F9082
:101400001F9018951F920F920FB60F9211242F93D1
:101410008F939F93EF93FF93E0915804F0915904B9
:101420008081E0915E04F0915F0482FD12C09081A2
:10143000809161048F5F8F7320916204821751F055
:10144000E0916104F0E0E85BFB4F958F80936104CD
:1014500001C08081FF91EF919F918F912F910F900B
:101460000FBE0F901F901895CF93DF93282F30E079
:10147000F901EE59FE4F8491F901E058F94FD491EA
:10148000F901E256F94FC491CC2391F081110E94E9
:101490009504EC2FF0E0EE0FFF1FEA58F94FA591ED
:1014A000B491EC91ED2381E090E021F480E002C062
:1014B00080E090E0DF91CF9108951F93CF93DF9369
:1014C000282F30E0F901EE59FE4F8491F901E058E0
:1014D000F94FD491F901E256F94FC491CC23C1F0F0
:1014E000162F81110E949504EC2FF0E0EE0FFF1FE4
:1014F000EC56F94FA591B4919FB7F894111104C01F
:101500008C91D095D82302C0EC91DE2BDC939FBF49
:10151000DF91CF911F9108951F93CF93DF9385EDB6
:101520008093BC008091C1039091C203A091C3033A
:10153000B091C4030796A11DB11D23E0B695A795F0
:10154000979587952A95D1F72091BC0024FF53C029
:101550004091C1035091C2036091C3037091C403D1
:10156000452B462B472B81F30097A105B10541F090
:101570002AE22A95F1F700C00197A109B109E4CF49
:101580008091C003C1E0C093BF038823B1F1D09123
:10159000B8001091BA008091BC008A7B8093BC0097
:1015A00060E082E10E945D0A60E083E10E945D0AE2
:1015B00010920904C0930B0410920A0461E082E1C6
:1015C0000E945D0A61E083E10E945D0A8091B9009A
:1015D0008E7F8093B9008091B9008D7F8093B90090
:1015E00088E48093B80085E48093BC001093BA002F
:1015F000D093B80002C010920904DF91CF911F91DF
:101600000895CF93DF9390E0FC01E058F94F2491C7
:10161000FC01E256F94F8491882361F190E0880F34
:10162000991FFC01EE54F94FC591D491FC01EC5681
:10163000F94FA591B491611109C09FB7F8948881C1
:10164000209582238883EC912E230BC0623061F4B5
:101650009FB7F8948881322F309583238883EC914B
:101660002E2B2C939FBF06C08FB7F894E8812E2BAA
:1016700028838FBFDF91CF9108958230910538F094
:10168000880F991F880F991F05970197F1F7089503
:101690008F929F92AF92BF92CF92DF92EF92FF9282
:1016A0006B017C010E94BE044B015C01C114D1049A
:1016B000E104F104F1F00E94BE04DC01CB018819C1
:1016C0009909AA09BB09883E9340A105B10570F3A9
:1016D00021E0C21AD108E108F10888EE880E83E003
:1016E000981EA11CB11CC114D104E104F10419F726
:1016F000DDCFFF90EF90DF90CF90BF90AF909F90A5
:101700008F9008951F920F920FB60F9211242F936E
:101710003F938F939F93AF93BF93809130059091A8
:101720003105A0913205B091330530912F0423E0AB
:10173000230F2D3720F40196A11DB11D05C026E809
:10174000230F0296A11DB11D20932F048093300515
:1017500090933105A0933205B09333058091300406
:1017600090913104A0913204B09133040196A11DEF
:10177000B11D8093300490933104A0933204B09350
:101780003304BF91AF919F918F913F912F910F9013
:101790000FBE0F901F9018950F931F93CF93DF9359
:1017A0001F92CDB7DEB78C01698360E0FC01868DA6
:1017B0000E945D0A41E050E0BE016F5F7F4FF8017B
:1017C000838D948D0E944B130F90DF91CF911F91C9
:1017D0000F9108951F93CF93DF93EC01162F60E2D2
:1017E0000E94CC0B111102C06CE001C06DE0CE0173
:1017F000DF91CF911F910C94CC0B1F920F920FB6DB
:101800000F9211242F933F934F935F936F937F9386
:101810008F939F93AF93BF93EF93FF938091B90002
:10182000887F803609F49CC068F5883209F45BC073
:1018300090F4803109F454C038F4882309F4F2C0DC
:10184000883009F44DC0F2C0883109F44CC08032B0
:1018500009F45DC0EBC0803409F468C048F48033FB
:1018600009F455C0883309F0E1C080930804D4C05E
:10187000803509F44FC0883509F45DC0883409F01B
:10188000D5C0D2C0883909F4C3C0A8F4883709F498
:1018900067C038F4883609F463C0803709F460C043
:1018A000C5C0883809F4B4C0803909F45FC08038F5
:1018B00009F0BCC05BC0803B09F484C038F4803AB6
:1018C00009F466C0883A09F47DC0B0C0803C09F4D0
:1018D000A3C0883C09F4A0C0883B09F486C0A6C018
:1018E00080912E0410C090912D0480912C049817A3
:1018F00070F5E0912D0481E08E0F80932D04F0E0CF
:10190000E45FFB4F80818093BB0085EC82C08093B5
:1019100008048AC0E0912D0481E08E0F80932D048D
:101920008091BB00F0E0E45FFB4F808390912D0439
:1019300080912C046AC0E0912D0481E08E0F809389
:101940002D048091BB00F0E0E45FFB4F8083809129
:101950000B04811169C081E080930A0484EA5DC0B0
:1019600083E08093090410920704CFCF809107048D
:10197000803208F04DC0E091070481E08E0F809323
:1019800007048091BB00F0E0E951FC4F8083BDCF9C
:1019900085EC8093BC00109209048091070480328A
:1019A00030F4E0910704F0E0E951FC4F10826091BF
:1019B000070470E087EE93E0E0E0F0E00995109214
:1019C000070434C084E0809309041092E603109267
:1019D000E503E0E0F0E009958091E503811105C0A1
:1019E00081E08093E5031092C503E091E60381E076
:1019F0008E0F8093E603F0E0EB53FC4F80818093E1
:101A0000BB009091E6038091E503981708F47DCF21
:101A100085E88093BC000AC085EC8093BC001092DE
:101A2000090404C0109208040E948C0AFF91EF91EF
:101A3000BF91AF919F918F917F916F915F914F91E6
:101A40003F912F910F900FBE0F901F901895CF933D
:101A5000DF93FC01448155816081718185EE94E0C2
:101A60000E948903EC018EE593E00E947C148C0FA8
:101A70009D1FDF91CF9108958F929F92AF92BF9259
:101A80000F931F93CF93DF93CDB7DEB7A1970FB618
:101A9000F894DEBF0FBECDBF19A2423008F44AE071
:101AA0008E010F5D1F4F842E912CA12CB12CA5010E
:101AB00094010E94A41EE62FB901CA010150110928
:101AC000EA3014F4E05D01C0E95CD801EC93232B0B
:101AD000242B252B61F7C8010E947C14A1960FB618
:101AE000F894DEBF0FBECDBFDF91CF911F910F9154
:101AF000BF90AF909F908F900895CF93DF93EC01AC
:101B0000FB0144815581608171810E9466098111C8
:101B100003C0CE010E949409CE01DF91CF910895B8
:101B2000EF92FF920F931F93CF93DF93CDB7DEB762
:101B300062970FB6F894DEBF0FBECDBF8C01CB010C
:101B4000F8011182108213821282158214824AE0F7
:101B50009E012F5F3F4F7901B9010E945B19F70188
:101B600001900020E9F73197AF014E195F09B701E5
:101B7000C8010E94A60962960FB6F894DEBF0FBE98
:101B8000CDBFDF91CF911F910F91FF90EF900895FE
:101B90002F923F924F925F926F927F928F929F927D
:101BA000AF92BF92CF92DF92EF92FF920F931F936B
:101BB000CF93DF93CDB7DEB76B970FB6F894DEBF48
:101BC0000FBECDBF9B8F8A8F1B014A01D22E198772
:101BD00008873701A982DC0159962D913C915A97CB
:101BE0002115310509F0FFC018968D919C91199728
:101BF000681779070CF0E7C11A968D919C911B9795
:101C0000481759070CF0DFC1EC2DF0E0FB83EA83A5
:101C10009B0146E0C49E200D311D11243D872C8779
:101C2000121613060CF0CFC16A2D70E07B876A870D
:101C300083E0660F771F8A95E1F77F876E87CB0178
:101C4000880D991D181619060CF0BDC158968C9177
:101C5000811104C08FEA8D1508F4D394AA8DBB8D31
:101C6000ED91FC9111970284F385E02DCD0109954A
:101C7000B5E0DB9EC0011124EC2DF0E0F98BE88B80
:101C800091012B5F3F4F3B8B2A8B3D822C822101A0
:101C9000AC01421953095D8B4C8B7981672F70E041
:101CA0007F8B6E8BC4010896998F888FEC89FD8994
:101CB000E40DF51DEA58FE4FD49054019F828E82A8
:101CC000D0FE16C0AA8DBB8DED91FC91B1E0CB1278
:101CD00009C02981213031F40484F585E02D28855F
:101CE000398519C00684F785E02DE884F9841DC084
:101CF000488559854615570519F1AA8DBB8DED917B
:101D0000FC91B1E0CB120DC02981213051F4048443
:101D1000F585E02D9301A501B2018A8D9B8D099572
:101D20000FC00684F785E02D73010A851B852A8183
:101D30003B814E815F816C817D818A8D9B8D099570
:101D4000D6943FEFA31AB30A4E815F816E897F89D3
:101D5000460F571F5F834E83888D998DA816B9064D
:101D600009F0AECF9FEF491A590AAC81BD81E889CD
:101D7000F989AE0FBF1FBD83AC832A893B89421608
:101D8000530609F093CF488559854615570509F440
:101D9000F8C0AA8DBB8DED91FC91B1E0CB1211C0C2
:101DA0002981213071F4B1016B5F7F4F0088F18987
:101DB000E02D830128E030E0A4018A8D9B8D0995F8
:101DC000E0C06C857D854A815B81641B750B068450
:101DD000F785E02D73010E851F859A01A4018A8D78
:101DE0009B8D0995CEC0F9013496E491DE1AF90174
:101DF000329685919491B7E0DB9E800D911D112460
:101E0000F901259134913B8B2A8BFC01259134916A
:101E10005901FC0132965490319634913C873296A8
:101E200074903196149141E04C1518F0598152305C
:101E300068F0672D072C000C770B7D836C83812F56
:101E4000012E000C990B9B838A8304C01B821A828B
:101E50001D821C82AA8DBB8DED91FC91119702848D
:101E6000F385E02DCD010995412CD12C612CF98110
:101E7000EF2FF0E0FF83EE832C2D30E03B872A87A5
:101E8000A401410F511D17FD5A955F8B4E8BB10177
:101E9000670D711D77FC7A95798F688F7C85671641
:101EA00008F06FC0262D30E04A815B81420F531F3E
:101EB000AE81BF81A49FC001A59F900DB49F900DDE
:101EC0001124F401E80FF91FF98BE88B842D712C94
:101ED0004E895F89420F531F5D8B4C8B751408F040
:101EE0004DC051E0580F5E87877041F4C5010196DF
:101EF000EA89FB89EA0DFB1DD4905C01D7FE3AC04C
:101F000061E0C61216C07981713099F4AA8DBB8D3B
:101F1000ED91FC9111970484F585E02D2885398594
:101F20004C895D89688D798D670D711DCD0109958D
:101F300021C08C819D81870D911DEA85FB858E9F37
:101F4000B0018F9F700D9E9F700D1124620D731D47
:101F5000AA8DBB8DED91FC9111970684F785E02D3C
:101F6000E884F9840E811F812A853B854889598937
:101F7000CD010995DD0C73948E85B0CF450C63942B
:101F80008DCFAA8DBB8DED91FC9111970688F789B5
:101F9000E02DCD016B960FB6F894DEBF0FBECDBF1E
:101FA000DF91CF911F910F91FF90EF90DF90CF9035
:101FB000BF90AF909F908F907F906F905F904F9069
:101FC0003F902F9009946B960FB6F894DEBF0FBE2A
:101FD000CDBFDF91CF911F910F91FF90EF90DF90D8
:101FE000CF90BF90AF909F908F907F906F905F90B9
:101FF0004F903F902F9008952F923F924F925F9273
:102000006F927F928F929F92AF92BF92CF92DF9208
:10201000EF92FF920F931F93CF93DF93CDB7DEB76D
:102020002B970FB6F894DEBF0FBECDBF28E334E088
:102030003A87298745EEC42E44E0D42E1C01860140
:102040007C0138872F831B86EF81F8854190519062
:1020500061907190F887EF83F60127A130A541A523
:1020600052A5C301B2010E941D1D4B015C0120E07D
:1020700030E0A9010E942B1E18165CF42AE037ED0F
:1020800043E25CE3C501B4010E942B1E18168CF0DC
:102090000AC02AE037ED43E25CEBC501B4010E94BF
:1020A000C21B87FD06C0F7019081F80187A9981728
:1020B00059F0F60147A250A661A672A6F7018081E9
:1020C000F80187ABF1E0FB8724E0C20ED11C3FEFA3
:1020D000E31AF30A0F5F1F4F8F819885885494404D
:1020E00009F0B2CFFB85FF2309F415C1E12CF12CD7
:1020F00000E210E024E530E040E050E060E070E015
:1021000085EE94E00E94CB0681E08093F9048093F1
:10211000FA0481E090E09093F8048093F7049093A0
:10212000F6048093F504812C912C5401839400E0F3
:1021300010E01092F2041092F1041093F404009352
:10214000F304F10181911F01811103C064E673E082
:1021500002C061E673E0CE0101960E94C7098AE7DA
:1021600093E00E947C144AE0C501B4010E943C0D3A
:1021700020E030E0A901E985FA85608171818281E2
:1021800093810E94C21B87FF03C087E693E002C0D1
:1021900083E893E00E947C14E985FA85C190D19090
:1021A000E190F190FA87E987A7019601C701B6018E
:1021B0000E94761E882319F089E693E01AC0260152
:1021C0003701E89477F82FEF3FEF4FE75FE7C30160
:1021D000B2010E94761E81110FC02FEF3FEF4FE733
:1021E0005FE7C301B2010E94C21B18162CF48DE6F2
:1021F00093E00E947C1476C02FEF3FEF4FE75FE43F
:10220000C701B6010E942B1E18161CF481E793E04B
:10221000F0CF2FEF3FEF4FE75FECC701B6010E9411
:10222000C21B87FDF3CF20E030E0A901C701B60152
:102230000E94C21B87FF09C06DE285EE94E00E94F8
:102240008E08F7FAF094F7F8F0942AE037ED43EAB5
:102250005BE3C701B6010E941E1D2B013C010E94D9
:10226000FC1D6B017C010E94C71B9B01AC01C301DB
:10227000B2010E941D1D2B013C014AE0C701B601BD
:102280000E943C0D6EE285EE94E00E948E0820E0F4
:1022900030E040E251E4C301B2010E94281C2B014E
:1022A0003C010E94FC1D6B01E12CF12C4AE0C701AE
:1022B000B6010E943C0DC701B6010E94C71B9B01DD
:1022C000AC01C301B2010E941D1D20E030E040E2DC
:1022D00051E40E94281C0E94FC1D80E090E04AE02E
:1022E0000E943C0D85E793E00E947C14CE0101968C
:1022F0000E94270DCE0101960E949C14085F1F4F7B
:10230000FFEF8F1A9F0AAF0ABF0A0032110509F0CA
:1023100010CF0E94F5132B960FB6F894DEBF0FBEB8
:10232000CDBFDF91CF911F910F91FF90EF90DF9084
:10233000CF90BF90AF909F908F907F906F905F9065
:102340004F903F902F900895BF92CF92DF92EF92DF
:10235000FF920F931F93CF93DF93CDB7DEB76297B2
:102360000FB6F894DEBF0FBECDBF94E3C92E94E044
:10237000D92EE5EEF4E0D60180E09D9123AD9217D1
:1023800011F093AF81E0319694E0E93EF907A9F7A7
:10239000882309F4B7C0E12CF12C0FE010E024E50C
:1023A00030E041E250E060E070E085EE94E00E94B1
:1023B000CB0681E08093F9048093FA0481E090E0F9
:1023C0009093F8048093F7049093F6048093F504B7
:1023D0001092F2041092F10481E290E09093F404E0
:1023E0008093F3048E01035F1F4F60E673E0C80122
:1023F0000E94C709EE24E394F12CB12CF6018191DF
:102400006F01882309F446C0B701CE010196BB20B5
:1024100001F10E94900D68E773E0CE0107960E94DB
:10242000C709BE016F5F7F4FCE0107960E947D0DE9
:10243000FC014481558160817181C8010E94660957
:10244000CE0107960E949C14CE0101960E949C1416
:1024500021C00E94900D6AE773E0CE0107960E94AA
:10246000C709BE016F5F7F4FCE0107960E947D0DA9
:10247000FC014481558160817181C8010E94660917
:10248000CE0107960E949C14CE0101960E949C14D6
:10249000BB24B394FFEFEF1AFF0A85E0E816F104BE
:1024A00009F0ACCFBB2029F16DE773E0CE010196B6
:1024B0000E94C709B801CE0101960E947D0D8017C8
:1024C000910779F0FC01608171816115710531F02E
:1024D00044815581C8010E94A60903C0C8010E9419
:1024E0009409CE0101960E949C14C8010E94270DF8
:1024F00004C086E893E00E948E140E94F513C80180
:102500000E949C1462960FB6F894DEBF0FBECDBF3A
:10251000DF91CF911F910F91FF90EF90DF90CF90BF
:10252000BF900895FC0120812EBD0DB407FEFDCFA4
:102530002EB5FC01208308959F92AF92BF92CF9257
:10254000DF92EF92FF920F931F93CF93DF93EC01F3
:102550006B0188859985892B11F010E801C011E085
:10256000F6019080892D8123AA24A3948111A12CA6
:102570002C813D814E815F8160E271EA87E090E0CD
:102580000E94A41E022FB12CE22EF12C002319F080
:10259000C7010E943D0B8A85877FB9F58D858F3FE6
:1025A000B9F0992D912381E009F480E08A1581F03A
:1025B000EF85F8898F89992331F09081892B808369
:1025C000AA24A39405C09081809589238083A12C9F
:1025D000E989FA899081898D892B8083002319F0FC
:1025E000C7010E943D0B8E858F3F39F0EB89FC8936
:1025F0009081888D892309F0B12AE989FA8990812F
:10260000898D8095892380832CC0E989FA899081FE
:10261000898D892B8083002319F0C7010E943D0B0F
:102620008D858F3F69F0EF85F8898F89992D9123EA
:1026300019F09081892B03C0908180958923808334
:10264000E989FA899081898D8095892380838E8597
:102650008F3F39F0EB89FC899081888D892309F0BF
:10266000B12A8E858F3F11F0F601B0828885998559
:10267000892B79F4110F111189CFDF91CF911F911F
:102680000F91FF90EF90DF90CF90BF90AF909F9011
:1026900008951695F0CFAF92BF92CF92DF92EF924E
:1026A000FF920F931F93CF93DF931F92CDB7DEB7A7
:1026B0008C015B016A01DC018D919C911197892B42
:1026C00041F01296ED91FC911397908181819CBD10
:1026D0008DBDF80183858F3F19F060E00E945D0A8F
:1026E0007501CA0CDB1CEC14FD04A9F0D7018D9117
:1026F0007D018983F80180819181892B29F0CE01A8
:1027000001960E949212EFCFBE016F5F7F4FC8010A
:102710000E949C12E8CFD8011B968C918F3F19F034
:1027200061E00E945D0A81E00F90DF91CF911F91DF
:102730000F91FF90EF90DF90CF90BF90AF900895F2
:10274000CF93C82F87FDCFE7C093040561E285EEE4
:1027500094E00E94CC0B6C2F606885EE94E00E94A0
:10276000CC0B60E285EE94E0CF910C94CC0BCF9330
:102770008091020587FD13C061E00E94010B60E0BB
:10278000809102050E945D0A61E070E080E090E0C7
:102790000E94480B61E0809102050E945D0AC09191
:1027A0000505C83008F0C7E0C093050561E285EE75
:1027B00094E00E94CC0B6C2F606185EE94E00E9447
:1027C000CC0B60E285EE94E00E94CC0B8091040576
:1027D0000E94A01360E285EE94E00E94CC0B6CE0B6
:1027E00085EE94E0CF910C94CC0B1F93CF93DF93A5
:1027F00090910605992361F0809107058F5F8917F5
:1028000018F48093070504C0109207050E94B713BF
:10281000D0910A05D695D695D69580910B058695CB
:102820008695869590E02D2F30E08217930764F10E
:102830006D2F606485EE94E00E94CC0BC09108057A
:10284000109109056C2F606885EE94E00E94CC0B16
:1028500061E0809103050E945D0A412F50E06C2FDA
:1028600070E0461B570B4F5F5F4F84E5D89F600DAC
:10287000711D112460507F4F8091000590910105DA
:102880000E944B13DF5FC9CF60E485EE94E00E94A5
:10289000CC0B83E580930805109209058FE28093A5
:1028A0000A0510920B05DF91CF911F91089588EFD3
:1028B00091E0E0E0F1E0DF019C011D922150304009
:1028C000E1F71092080580910905833508F483E546
:1028D0008093090510920A0580910B058F3208F448
:1028E0008FE280930B051092F2041092F104109283
:1028F000F4041092F3040895009769F0FC0101902C
:102900000020E9F73197AF01481B590BBC0185EE58
:1029100094E00C94890380E090E00895CF93DF93D6
:102920000E947C14EC018EE593E00E947C148C0FD5
:102930009D1FDF91CF910895FC01808191810097C7
:1029400011F00C94781F0895CF93DF93E8E4F4E03E
:102950001382128288EE93E0A0E0B0E08483958336
:10296000A683B78322E033E03183208325EC30E077
:102970003587248724EC30E03787268720EC30E049
:10298000318B208B21EC30E0338B228B22EC30E03A
:10299000358B248B26EC30E0378B268B118E128EF4
:1029A000138E148EE4E2F5E0138212828483958301
:1029B000A683B78384E193E091838083C5EED4E05E
:1029C0001B821A8224E530E03D832C8380E390E073
:1029D0009F838E83398728879B878A871E8A1D86D7
:1029E0001C861F861E8681E08D8B8C8B2FEF3FEF20
:1029F0003B8B2A8B398B288B8F8B188E1A8E198ED6
:102A000086E293E0998388838CE190E00E94E01E47
:102A1000DC0111961C921E9213961C921E92129724
:102A20008AE01B968C931B978DE01C968C931C97C9
:102A30008FEF1E968C931E978BE01D968C931D979F
:102A4000E8EAF6E0E491F0E0EE0FFF1FEC56F94FF4
:102A50008591949156969C938E935597EAE8F6E06B
:102A6000E4915A96EC935A97E9EAF6E0E491F0E0A3
:102A7000EE0FFF1FEC56F94F8591949150969C9361
:102A80008E931F97EBE8F6E0E4915796EC935797F7
:102A9000EBEAF6E0E491F0E0EE0FFF1FEC56F94FA1
:102AA0008591949152969C938E935197EDE8F6E020
:102AB000E4915996EC93599740E059E06DE370E04A
:102AC00014964D935D936D937C93179781E090E0FE
:102AD00019969C938E9318971A961C921A975B9648
:102AE0001C925B97BC8FAB8F89E08E8F88E08D8FB7
:102AF00080E1ECE0F5E0DF011D928A95E9F71FAA7D
:102B000018AE19AE1AAE1BAE1CAE1DAE1EAEDF91D6
:102B1000CF910895CF93DF93CDB7DEB7E5970FB68A
:102B2000F894DEBF0FBECDBF789484B5826084BDBB
:102B300084B5816084BD85B5826085BD85B58160C1
:102B400085BD80916E00816080936E00109281003F
:102B500080918100826080938100809181008160FA
:102B600080938100809180008160809380008091BB
:102B7000B10084608093B1008091B0008160809347
:102B8000B00080917A00846080937A0080917A000E
:102B9000826080937A0080917A00816080937A00CD
:102BA00080917A00806880937A001092C100009131
:102BB000000510910105F80183858F3F41F061E028
:102BC0000E94010B61E0F80183850E945D0AF80113
:102BD00080819181892B09F434C0FFB6F8948091EB
:102BE0003405811127C0E8EAF6E08491EAE8F6E0CE
:102BF0009491E82FF0E0EE0FFF1FEE54F94FA591EE
:102C0000B491EC91E92321F461E08AE00E945D0A2D
:102C100061E08AE00E94010B8CB580618CBD8CB5AF
:102C200080648CBD61E08DE00E94010B61E08BE06F
:102C30000E94010B809134058F5F80933405FFBEA5
:102C400023C061E0F80184850E94010BF8018285B0
:102C50008B7F11F460E002C061E0F80184850E947E
:102C60005D0AF80185858F3F41F061E00E94010B0C
:102C700061E0F80185850E945D0AF80186858F3F35
:102C800019F060E00E94010B81E0F801838F61E0A0
:102C9000809103050E94010B8091020587FD03C00E
:102CA00061E00E94010B84E08093050588E2809337
:102CB000040510920605109207050E94B7131092A2
:102CC000080580910905833508F483E5809309059B
:102CD00010920A0580910B058F3208F48FE28093E1
:102CE0000B050E94F5138CE30E94A0130E94571459
:102CF0000E94F51381E08093F9048093FA0481E047
:102D000090E09093F8048093F7049093F6048093F6
:102D1000F5041092F2041092F1041092F40410924F
:102D2000F30482E993E00E948E148AEA93E00E9401
:102D30008E140E94F51368EE73E080E090E00E942C
:102D4000480B0E9457140E94F51356E5C52E53E018
:102D5000D52E0EE413E0F801F0800E5F1F4F61E006
:102D60008F2D0E94010B60E08F2D0E945D0AC0161E
:102D7000D10689F762E082E10E94010B62E083E103
:102D80000E94010BE0915804F091590482E0808385
:102D9000E0915404F09155041082E0915604F091B2
:102DA00057048FEC808310926004E0915C04F091F2
:102DB0005D0486E08083E0915A04F0915B04808199
:102DC00080618083E0915A04F0915B048081886087
:102DD0008083E0915A04F0915B0480818068808355
:102DE000E0915A04F0915B0480818F7D808360E0E4
:102DF0008EE00E94010B60E08FE00E94010B60E01A
:102E000080E10E94010B60E081E10E94010B1092C1
:102E10003F05109240051092410510924205109214
:102E200043051092440510924505109246051092F4
:102E30004705109248051092490510924A051092D4
:102E40004B0510924C0510924D0510924E051092B4
:102E50003A05109239058091500589838A838B83C6
:102E60008C83CE0101960E94FC0F0E94A4118FB7A3
:102E7000F894409030055090310560903205709084
:102E800033058FBF82E10E94340A11E0019709F0F7
:102E900010E01093500583E10E94340A21E001976D
:102EA00009F020E020934F051EA71FA718AB19AB10
:102EB00046E5E42E43E0F42E0FE315E028E334E08A
:102EC0003DAB2CAB59016801F7018081F2E0EF0EB8
:102ED000F11C8E3008F08E508770806480937C00E7
:102EE00080917A00806480937A0080917A0086FDD8
:102EF000FCCF609178008091790070E0782B072EEC
:102F0000000C880B990B0E94C91B20E030EC4FE7A6
:102F100054E40E948A1D20E030E040EA50E40E9420
:102F2000281C20E030E040E250E40E941D1D2AE908
:102F300039E949E151E40E94281C909050059920FC
:102F400079F09B01AC010E94281C9B01AC01F601A9
:102F500060817181828193810E941E1DF60101C0F2
:102F6000F5016083718382839383F4E0CF0ED11CDB
:102F700024E0A20EB11C3EE5E31633E0F30609F0AF
:102F8000A3CF992009F44DC080913B0590913C0559
:102F9000A0913D05B0913E05A3019201281B390B7C
:102FA0004A0B5B0B2A30310541055105D0F14092A7
:102FB0003B0550923C0560923D0570923E05809124
:102FC000390590913A05019690933A058093390519
:102FD0008436910534F138E3E32E34E0F32E20E01B
:102FE00030E048EC52E4F801608171818281938184
:102FF0000E948A1D0E94361EF7016193719381938E
:1030000091937F01F80111921192119211928F0107
:103010002FE435E02E173F0711F710923A05109272
:103020003905AE01425D5F4F5BAB4AAB84E3282EAE
:1030300084E0382E98E3C92E94E0D92E2EE4E22EB7
:1030400023E0F22E8101EAA9FBA98191FBABEAAB57
:10305000882371F021E73DE342E651E4F601608107
:103060007181828193810E942B1E1816FCF419C075
:10307000F60180809180A280B38020E030E040EAB9
:1030800051E4C501B4010E942B1E181654F020E033
:1030900030E040EA51ECC501B4010E94C21B87FF39
:1030A00005C021E0F801208361E003C0F80110822F
:1030B00060E0F70180810E945D0A0F5F1F4FF2E020
:1030C000EF0EF11C24E0C20ED11C34E008331307CC
:1030D00009F0B9CFCE018E960E94FC0FF1018191CB
:1030E0001F018111C5C0F8E32F16F4E03F06B1F7C8
:1030F000E12CF12C0FE010E024E530E041E250E05B
:1031000060E070E085EE94E00E94CB0641E04093E1
:10311000F9044093FA0481E090E09093F8048093DE
:10312000F7049093F6048093F5041092F204109241
:10313000F10481E290E09093F4048093F30486E834
:1031400093E00E948E140E94F513109220051092B5
:103150002105109222051092230580914F058823A6
:1031600009F483C08091350590913605A09137050B
:10317000B0913805A3019201281B390B4A0B5B0B58
:10318000DA01C901883E9340A105B10508F46DC07C
:103190004092350550923605609237057092380599
:1031A00060E673E0CE0188960E94C709E12CF12CFD
:1031B000ECA9FDA96191719181919191FDABECAB6D
:1031C0001BA21AA21DA21CA21FA21EA28E010F5F8B
:1031D0001F4F22E044E00E943B19009771F0FC0170
:1031E00001900020E9F73197AF01481B590BBC0152
:1031F000CE0182960E94A60904C0CE0182960E944A
:1032000094094EA15FA16AA17BA1CE0188960E947C
:103210006609CE0182960E949C14F3E0EF16F10439
:1032200041F041E050E06BEB73E0CE0188960E94E4
:1032300066092FEFE21AF20A34E0E316F10409F00E
:10324000B7CF41E050E06FE573E0CE0188960E9471
:1032500066094CA55DA568A579A588E494E00E945F
:103260008903CE0188960E949C140E948B04FFCD96
:103270000E94A41172CFEF920F931F93CF93DF930D
:10328000E80147FD02C034E001C034E1042E000C27
:10329000550B57FF03C0519541955109E32E022F5D
:1032A000242FAE010E948019CE01DF91CF911F9192
:1032B0000F91EF900895BB274A3031F4992322F4FF
:1032C000BDE2909581959F4F0C946719BB27FB0138
:1032D0005527AA27880F991FAA1FA41710F0A41B0F
:1032E00083955051B9F7A05DAA3308F0A95DA19369
:1032F000009779F7B111B1931192CB010C94B21BE5
:10330000A9E0B0E0E6E8F9E10C94EC1C6A01122FA8
:10331000B02E2BE3201720F0FF24F394F00E02C010
:103320002CE3F22E0F2D27E0AE014F5F5F4F0E947E
:10333000DA1ABC014981842F8970813031F0E1FCB7
:1033400006C0E0FE06C090E205C09DE203C09BE21D
:1033500001C090E05E2D507143FF3CC0911102C04E
:1033600083E001C084E0811718F4212F281B01C0DD
:1033700020E051110BC0F601822F30E2882319F0B2
:1033800031938150FBCFC20ED11C20E0992329F04C
:10339000D6019C93F60131966F01C6010396E2FEB9
:1033A0000AC03EE4D6013C9341E411964C93119738
:1033B00012963C9306C03EE6F601308341E6418317
:1033C0003283FC01322F40E2332309F442C041939F
:1033D0003150FACF42FF44C0911102C083E001C0D6
:1033E00084E0811718F4212F281B01C020E051111F
:1033F0000BC0F601822F30E2882319F031938150FF
:10340000FBCFC20ED11C20E0992329F0D6019C935A
:10341000F60131966F01C6010396E2FE0BC039E456
:10342000D6013C933EE411963C93119736E41296F4
:103430003C9307C039E6F60130833EE6318336E639
:103440003283FC01322F40E2332319F04193315093
:10345000FBCFFC01E20FF11D10828EEF9FEFA6C0A3
:1034600021E030E0911102C020E030E0161617068E
:103470001CF4FB01319602C0E1E0F0E02E0F3F1F8B
:10348000BB2021F0EB2DF0E0319602C0E0E0F0E04F
:103490002E0F3F1FE12FF0E02E173F071CF4121BE9
:1034A000212F01C020E08E2D887159F4F601822F62
:1034B00030E2882319F031938150FBCFC20ED11C2A
:1034C00020E0992329F0D6019C93F60131966F01F3
:1034D00051110BC0F601822F90E3882319F09193CC
:1034E0008150FBCFC20ED11C20E00F2D060F9A8118
:1034F000342F307144FF03C0913309F4015010168A
:1035000024F4093018F008E001C001E0AB0177FFB6
:1035100002C040E050E0FB01E41BF50BA1E0B0E08D
:10352000AC0FBD1FEA0FFB1F8EE2A82E4B01801AC5
:1035300091080B2D10E01195019511094F3FBFEF38
:103540005B0721F4D601AC9211966D0164177507E3
:103550002CF08416950614F4818101C080E341505B
:1035600051093196D60111967D014017510724F07B
:10357000D6018C936701E2CF6417750739F496334F
:1035800020F4953319F4311101C081E3F6018083F1
:10359000F701822F90E2882319F091938150FBCF9D
:1035A000F701E20FF11D108280E090E02996ECE037
:1035B0000C94081D283008F027E03327DA01990F12
:1035C000311D87FD916000966105710539F4326007
:1035D0002E5F3D9330E32A95E1F708959F3F30F049
:1035E00080387105610509F03C5F3C5F3D93913087
:1035F00008F08068911DDF93CF931F930F93FF9284
:10360000EF92192F987F9695E92F96959695E90F49
:10361000FF27EE53FF4F99273327EE24FF24A701FE
:10362000E70105900894079428F4360FE71EF81E6A
:10363000491F511D660F771F881F991F0694A1F718
:103640000590079428F4E70EF81E491F561FC11D68
:10365000770F881F991F661F0694A1F7059007949E
:1036600028F4F80E491F561FC71FD11D880F991F38
:10367000661F771F0694A1F70590079420F4490F61
:10368000561FC71FD81F990F661F771F881F0694E4
:10369000A9F784911095177041F0D695C795579565
:1036A0004795F794E7941A95C1F7E8E6F0E0689437
:1036B0001590159135916591959105907FE27395DF
:1036C000E118F10A430B560BC90BD009C0F7E10C06
:1036D000F11E431F561FC91FD01D7EF4703311F415
:1036E0008A95E6CFE894015030F0080F0AF40027DD
:1036F000021708F4202F2395022F7A3328F079E35C
:103700007D932A95E9F710C07D932A9589F6069452
:1037100097956795379517951794E118F10A430B1C
:10372000560BC90BD00998F023957E9173957A3387
:1037300008F070E37C932013B8F77E9170617D935D
:1037400030F0839571E37D9370E32A95E1F71124BE
:10375000EF90FF900F911F91CF91DF91992787FDF7
:1037600090950895DC01FC01672F71917723E1F7B3
:10377000329704C07C916D9370836291AE17BF073E
:10378000C8F308950E94041C08F481E00895E894A9
:1037900009C097FB3EF490958095709561957F4F99
:1037A0008F4F9F4F9923A9F0F92F96E9BB27939547
:1037B000F695879577956795B795F111F8CFFAF457
:1037C000BB0F11F460FF1BC06F5F7F4F8F4F9F4F88
:1037D00016C0882311F096E911C0772321F09EE8E6
:1037E000872F762F05C0662371F096E8862F70E04C
:1037F00060E02AF09A95660F771F881FDAF7880F26
:103800009695879597F90895990F0008550FAA0B7B
:10381000E0E8FEEF16161706E807F907C0F01216E3
:103820001306E407F50798F0621B730B840B950BE6
:1038300039F40A2661F0232B242B252B21F408953B
:103840000A2609F4A140A6958FEF811D811D0895D8
:103850000E943B1C0C94AC1C0E949E1C38F00E94E1
:10386000A51C20F0952311F00C94951C0C949B1C26
:1038700011240C94E01C0E94BD1C70F3959FC1F3B1
:10388000950F50E0551F629FF001729FBB27F00D0E
:10389000B11D639FAA27F00DB11DAA1F649F662763
:1038A000B00DA11D661F829F2227B00DA11D621FB2
:1038B000739FB00DA11D621F839FA00D611D221F6C
:1038C000749F3327A00D611D231F849F600D211D50
:1038D000822F762F6A2F11249F5750409AF0F1F0D3
:1038E00088234AF0EE0FFF1FBB1F661F771F881F3C
:1038F00091505040A9F79E3F510580F00C94951CC3
:103900000C94E01C5F3FE4F3983ED4F386957795E2
:103910006795B795F795E7959F5FC1F7FE2B880FE1
:10392000911D9695879597F9089597F99F6780E877
:1039300070E060E008959FEF80EC089500240A9401
:103940001616170618060906089500240A9412167A
:103950001306140605060895092E0394000C11F4AD
:10396000882352F0BB0F40F4BF2B11F460FF04C05A
:103970006F5F7F4F8F4F9F4F089557FD9058440FB3
:10398000551F59F05F3F71F04795880F97FB991FBE
:1039900061F09F3F79F0879508951216130614067B
:1039A000551FF2CF4695F1DF08C016161706180608
:1039B000991FF1CF86957105610508940895E894E3
:1039C000BB2766277727CB0197F908952F923F925F
:1039D0004F925F926F927F928F929F92AF92BF921F
:1039E000CF92DF92EF92FF920F931F93CF93DF93CB
:1039F000CDB7DEB7CA1BDB0B0FB6F894DEBF0FBE28
:103A0000CDBF09942A88398848885F846E847D8474
:103A10008C849B84AA84B984C884DF80EE80FD8076
:103A20000C811B81AA81B981CE0FD11D0FB6F894EC
:103A3000DEBF0FBECDBFED0108955058BB27AA27AA
:103A40000E94351D0C94AC1C0E949E1C38F00E94F4
:103A5000A51C20F039F49F3F19F426F40C949B1C0C
:103A60000EF4E095E7FB0C94951CE92F0E94BD1C19
:103A700058F3BA17620773078407950720F079F4A3
:103A8000A6F50C94DF1C0EF4E0950B2EBA2FA02D9A
:103A90000B01B90190010C01CA01A0011124FF27FB
:103AA000591B99F0593F50F4503E68F11A16F040F6
:103AB000A22F232F342F4427585FF3CF46953795F5
:103AC0002795A795F0405395C9F77EF41F16BA0BBA
:103AD000620B730B840BBAF09150A1F0FF0FBB1F68
:103AE000661F771F881FC2F70EC0BA0F621F731FB1
:103AF000841F48F4879577956795B795F7959E3F0E
:103B000008F0B0CF9395880F08F09927EE0F97959E
:103B1000879508950E949E1D0C94AC1C0E94A51CC4
:103B200058F00E949E1C40F029F45F3F29F00C944D
:103B3000951C51110C94E01C0C949B1C0E94BD1C04
:103B400068F39923B1F3552391F3951B550BBB27CC
:103B5000AA2762177307840738F09F5F5F4F220F11
:103B6000331F441FAA1FA9F335D00E2E3AF0E0E808
:103B700032D091505040E695001CCAF72BD0FE2F52
:103B800029D0660F771F881FBB1F261737074807E6
:103B9000AB07B0E809F0BB0B802DBF01FF2793589E
:103BA0005F4F3AF09E3F510578F00C94951C0C94B1
:103BB000E01C5F3FE4F3983ED4F3869577956795D4
:103BC000B795F7959F5FC9F7880F911D96958795D3
:103BD00097F90895E1E0660F771F881FBB1F6217F2
:103BE00073078407BA0720F0621B730B840BBA0BB0
:103BF000EE1F88F7E09508950E94C51C88F09F5736
:103C000098F0B92F9927B751B0F0E1F0660F771F00
:103C1000881F991F1AF0BA95C9F714C0B13091F0F6
:103C20000E94DF1CB1E008950C94DF1C672F782FF1
:103C30008827B85F39F0B93FCCF3869577956795BB
:103C4000B395D9F73EF490958095709561957F4F27
:103C50008F4F9F4F08950E94041C08F48FEF089522
:103C600019F416F40C949B1C0C947B1E0E94C51C2A
:103C7000B8F39923C9F3B6F39F57550B87FF0E94FA
:103C8000891E0024A0E640EA900180585695979539
:103C900028F4805C660F771F881F20F026173707EF
:103CA000480730F4621B730B840B202931294A2BFF
:103CB000A69517940794202531254A2758F7660FB3
:103CC000771F881F20F026173707480730F4620B4C
:103CD000730B840B200D311D411DA09581F7B90197
:103CE000842F9158880F9695879508950E94041CFB
:103CF000880B990B08959F3F31F0915020F48795E0
:103D000077956795B795880F911D9695879597F943
:103D1000089591505040660F771F881FD2F708957D
:103D200097FB072E16F4009407D077FD09D00E9468
:103D3000C61E07FC05D03EF4909581959F4F0895CF
:103D4000709561957F4F0895A1E21A2EAA1BBB1BA7
:103D5000FD010DC0AA1FBB1FEE1FFF1FA217B30757
:103D6000E407F50720F0A21BB30BE40BF50B661F6D
:103D7000771F881F991F1A9469F760957095809531
:103D800090959B01AC01BD01CF010895AA1BBB1BFF
:103D900051E107C0AA1FBB1FA617B70710F0A61B4B
:103DA000B70B881F991F5A95A9F780959095BC016C
:103DB000CD010895EE0FFF1F0590F491E02D0994B9
:103DC0000F931F93CF93DF938230910510F482E01D
:103DD00090E0E0915305F091540520E030E0A0E040
:103DE000B0E0309719F14081518102811381481769
:103DF0005907C8F08417950769F4109731F01296A7
:103E00000C93129713961C9327C00093530510939D
:103E1000540522C02115310519F04217530718F433
:103E20009A01BD01EF01DF01F801DBCF211531055A
:103E3000F9F0281B390B2430310580F48A819B81ED
:103E40006115710521F0FB019383828304C0909377
:103E5000540580935305FE01329644C0FE01E20FE3
:103E6000F31F8193919322503109398328833AC0FB
:103E70002091510530915205232B41F42091FA02F3
:103E80003091FB0230935205209351052091F802A6
:103E90003091F9022115310541F42DB73EB740911B
:103EA000FC025091FD02241B350BE0915105F0916D
:103EB0005205E217F307A0F42E1B3F0B2817390712
:103EC00078F0AC014E5F5F4F2417350748F04E0F76
:103ED0005F1F50935205409351058193919302C007
:103EE000E0E0F0E0CF01DF91CF911F910F910895B5
:103EF000CF93DF93009709F481C0FC0132971382BE
:103F00001282A0915305B0915405109781F420813D
:103F10003181820F931F209151053091520528174E
:103F2000390751F5F0935205E093510567C0ED0153
:103F300020E030E0CE17DF0740F44A815B819E012C
:103F400041155105F1F0EA01F5CFD383C2834081D9
:103F50005181840F951FC817D90759F48881998119
:103F6000840F951F0296918380838A819B8193831E
:103F700082832115310529F4F0935405E09353050C
:103F80003DC0E901FB83EA8349915991C40FD51FD4
:103F9000EC17FD0761F480819181840F951F0296D3
:103FA000E90199838883828193819B838A83E0E0FE
:103FB000F0E012968D919C911397009719F0FD01F6
:103FC000DC01F7CF8D919C9111979D012E5F3F4FA2
:103FD000820F931F20915105309152052817390700
:103FE00069F4309729F4109254051092530502C0D9
:103FF00013821282B0935205A0935105DF91CF91A5
:104000000895A0E0B0E0E7E0F0E20C94EA1CEC01D7
:10401000009721F4CB010E94E01EB4C0FC01E60F22
:10402000F71F9C0122503109E217F30708F4A8C0DA
:10403000D9010D911C91119706171707B0F00530A3
:10404000110508F49BC0C80104978617970708F468
:1040500095C002501109061B170B019311936D9324
:104060007C93CF010E94781F89C05B01A01AB10A1E
:104070004C01800E911EA0915305B0915405612C06
:10408000712CE12CF12C109709F446C08D919C9174
:104090001197A815B905B1F56C0142E0C40ED11C09
:1040A000CA14DB0478F14C018A189B08640142E0D1
:1040B000C40ED11C1296BC9012971396AC91B5E029
:1040C000CB16D10440F0B282A38391828082D901C1
:1040D0006D937C9309C00E5F1F4F800F911FF901F4
:1040E00091838083EB2DFA2FE114F10431F0D70195
:1040F0001396FC93EE93129741C0F0935405E0930E
:1041000053053CC06816790608F43C017D011296FF
:104110000D90BC91A02DB7CF809151059091520583
:1041200088169906E1F466167706C8F48091F802BD
:104130009091F902009741F48DB79EB74091FC022F
:104140005091FD02841B950BE817F907C8F4F09312
:104150005205E0935105F901718360830FC0CB01D3
:104160000E94E01E7C01009759F0A801BE010E9448
:10417000C720CE010E94781FC70104C0CE0102C033
:1041800080E090E0CDB7DEB7EEE00C94061DFB01B9
:10419000DC0102C001900D9241505040D8F70895C3
:1041A000FB01DC0101900D920020E1F70895F894E5
:0241B000FFCF3F
:1041B20000000000000000000000000000000000FD
:1041C20000000000000000000000000000000000ED
:1041D200000000000000C0E0F0F8FCFCFEFFFCE084
:1041E20000000000000000000000000000000000CD
:1041F20000000000000000000000000000000000BD
:1042020000000000000000000000000000000000AC
:104212000000000000F8F8F8F8F8F8F8F8F8F8F8F4
:10422200F8F0F0E0E0C080C0FCFFFFFFFF7F3F7FBF
:10423200FFFFFFFFFF000000000000000000000081
:10424200000000000000000000000000000000006C
:10425200000000000000000000000000000000005C
:10426200000000000000000000000F1F3F7FFFFF62
:10427200FFFFFFFFFFFFE7C7C7878F9F9FFFFFFF7C
:10428200C1C0E0FCFFFFFFFFFFFCFCFCFCFEFEFEEA
:10429200FCFCF8F8F0E0C0C00000000000000000E4
:1042A200000000000000000000000000000000000C
:1042B20000000000000000000000000000000000FC
:1042C2000080C0E0F1FBFFFFFFFFFF7F1F0F0F87A2
:1042D200E7FFFFFF1F1F3FF9F8F8F8F8F8F8FDFFB6
:1042E200FFFFFFFFFFFFFFFF7F3F0F0701000000FF
:1042F20000000000000000000000000000000000BC
:1043020000000000000000000000000000000000AB
:10431200000000F0FEFFFFFFFFFFFFFFFFFFFFFEB9
:104322007E3F3F0F1FFFFFFFFCF0E0F1FFFFFFFFAB
:10433200FFFCF00101010101010101000000000088
:10434200000000000000000000000000000000006B
:10435200000000000000000000000000000000005B
:104362000000000000000003030303030303030132
:1043720001010100000000000000030F1F3F7F7FCA
:10438200FFFFFFFF7F7F1F0300000000000000000F
:10439200000000000000000000000000000000001B
:1043A2000000000000000000000055052000000091
:1043B20000001C048903B3036904E403C203D603A7
:1043C20000000000BB05B0056408A205A905A6050A
:1043D200A305000000008E08890364086308E30453
:1043E200A205AA0782079E079207B107A205CD057B
:1043F200EA0B49071007CB06AE064106E2050200AA
:104402000300040005000E000F00100011000D0A49
:10441200004143004443003A006E616E00696E66DB
:10442200006F7666002056002C20434800416C65E0
:104432007274613A200053696E20616C6572746116
:104442007300566F6C74696D6574726F20646520B9
:10445200342043616E616C657300496E6963696102
:0E4462006C697A616E646F2E2E2E002C0000A5
:00000001FF
