:020000040000FA
:100000000C945D000C9485000C9485000C94850084
:100010000C9485000C9485000C9485000C9485004C
:100020000C9485000C9485000C9485000C9485003C
:100030000C9485000C9485000C9485000C9485002C
:100040000C9495030C9485000C9405040C94DF0328
:100050000C9485000C9485000C9485000C9485000C
:100060000C9485000C9485000000000024002700FB
:100070002A0000000000250028002B0004040404CE
:100080000404040402020202020203030303030342
:10009000010204081020408001020408102001021F
:1000A00004081020000000080002010000030407FB
:1000B0000000000000000000CB0511241FBECFEFA0
:1000C000D8E0DEBFCDBF11E0A0E0B1E0ECEBF0E1A5
:1000D00002C005900D92A236B107D9F722E0A2E640
:1000E000B1E001C01D92A431B207E1F710E0CDE507
:1000F000D0E004C02197FE010E945608CC35D107FC
:10010000C9F70E9437040C945C080C940000E6EADE
:10011000F0E02491E2E9F0E09491EEE7F0E0E49180
:10012000EE23C9F0222339F0233001F1A8F4213065
:1001300019F1223029F1F0E0EE0FFF1FEE58FF4FCA
:10014000A591B4912FB7F894EC91811126C09095A8
:100150009E239C932FBF08952730A9F02830C9F023
:10016000243049F7209180002F7D03C0209180002A
:100170002F7720938000DFCF24B52F7724BDDBCFEE
:1001800024B52F7DFBCF2091B0002F772093B000B6
:10019000D2CF2091B0002F7DF9CF9E2BDACFCF9315
:1001A000DF9390E0FC01E057FF4F249184589F4F6C
:1001B000FC0184918823D1F090E0880F991FFC0105
:1001C000E859FF4FA591B491FC01EE58FF4FC5913E
:1001D000D49161110EC09FB7F8948C91E22FE095F5
:1001E0008E238C932881E223E8839FBFDF91CF91F8
:1001F00008958FB7F894EC91E22BEC938FBFF6CF74
:100200008E50806480937C0080917A00806480931B
:100210007A0080917A0086FDFCCF809178009091E1
:10022000790008953FB7F89480917301909174011B
:10023000A0917501B091760126B5A89B05C02F3F0E
:1002400019F00196A11DB11D3FBFBA2FA92F982FFC
:100250008827BC01CD01620F711D811D911D42E0F7
:10026000660F771F881F991F4A95D1F708958F92BF
:100270009F92AF92BF92CF92DF92EF92FF920E9435
:1002800012014B015C0188EEC82E83E0D82EE12CD0
:10029000F12C0E941201681979098A099B09683EAC
:1002A000734081059105A8F321E0C21AD108E10845
:1002B000F10888EE880E83E0981EA11CB11CC114C1
:1002C000D104E104F10429F7FF90EF90DF90CF9083
:1002D000BF90AF909F908F900895AF92BF92CF92B2
:1002E000DF92EF92FF920F931F93CF93DF936C01F6
:1002F0007B018B01040F151FEB015E01AE18BF08D7
:10030000C017D10759F06991D601ED91FC91019088
:10031000F081E02DC6010995892B79F7C501DF91A0
:10032000CF911F910F91FF90EF90DF90CF90BF90F2
:10033000AF900895FC01538D448D252F30E0842F1C
:1003400090E0821B930B541710F0CF9608950197FD
:100350000895FC01918D828D981761F0A28DAE0FEA
:10036000BF2FB11D5D968C91928D9F5F9F73928F71
:1003700090E008958FEF9FEF0895FC01918D828D9D
:10038000981731F0828DE80FF11D858D90E008956A
:100390008FEF9FEF0895FC01918D228D892F90E0C2
:1003A000805C9F4F821B91098F739927089587E77F
:1003B00091E00E94CB0121E0892B09F420E0822FFB
:1003C000089580E090E0892B29F00E94D7018111E7
:1003D0000C9400000895FC01A48DA80FB92FB11D45
:1003E000A35ABF4F2C91848D90E001968F7399276B
:1003F000848FA689B7892C93A089B1898C91837049
:1004000080648C93938D848D981306C00288F38941
:10041000E02D80818F7D80830895EF92FF920F936E
:100420001F93CF93DF93EC0181E0888F9B8D8C8DA0
:1004300098131AC0E889F989808185FF15C09FB794
:10044000F894EE89FF896083E889F9898081837057
:10045000806480839FBF81E090E0DF91CF911F9106
:100460000F91FF90EF900895F62E0B8D10E00F5F27
:100470001F4F0F731127E02E8C8D8E110CC00FB6FD
:1004800007FCFACFE889F989808185FFF5CFCE0195
:100490000E94EB01F1CFEB8DEC0FFD2FF11DE35A24
:1004A000FF4FF0829FB7F8940B8FEA89FB89808118
:1004B0008062CFCFCF93DF93EC01888D8823B9F092
:1004C000AA89BB89E889F9898C9185FD03C080815F
:1004D00086FD0DC00FB607FCF7CF8C9185FFF2CFDC
:1004E000808185FFEDCFCE010E94EB01E9CFDF9146
:1004F000CF910895FC0101900020E9F73197AF01F9
:10050000481B590BBC0187E791E00C946D018F9259
:100510009F92AF92BF920F931F93CF93DF93CDB76C
:10052000DEB7A1970FB6F894DEBF0FBECDBF19A2FC
:10053000423008F44AE08E010F5D1F4F842E912C4B
:10054000B12CA12CA50194010E943408E62FB90119
:10055000CA01EA30F4F4E05DD801EE938D01232B5B
:10056000242B252B79F790E080E0109719F0CD012E
:100570000E947A02A1960FB6F894DEBF0FBECDBFDF
:10058000DF91CF911F910F91BF90AF909F908F906F
:100590000895E95CE1CF4F925F926F927F928F92C4
:1005A0009F92AF92BF92CF92DF92EF92FF926B0138
:1005B0007C01AC019B010E942F088823C1F082E1DD
:1005C00091E00E947A027C018EE191E00E947A0221
:1005D0008E0D9F1DFF90EF90DF90CF90BF90AF905A
:1005E0009F908F907F906F905F904F9008954601FD
:1005F0005701E894B7F82FEF3FEF4FE75FE7C501EA
:10060000B4010E942F0881110DC02FEF3FEF4FE77B
:100610005FE7C501B4010E94650618161CF486E167
:1006200091E0CFCF2FEF3FEF4FE75FE4C701B60177
:100630000E94BD0718161CF48AE191E0C2CF2FEF8B
:100640003FEF4FE75FECC701B6010E94650687FDEB
:10065000F3CF20E030E0A901C701B6010E94650692
:10066000B12CA12C87FF0AC06DE287E791E00E94C0
:100670000D025C01F7FAF094F7F8F0942AE037EDF8
:1006800043EA5BE3C701B6010E94F9052B013C0177
:100690000E94DC066B017C010E940B079B01AC01F0
:1006A000C301B2010E94F8052B013C014AE0C701D9
:1006B000B6010E9487027C01EA0CFB1C6EE287E710
:1006C00091E00E940D02E80EF91E20E030E040E2C9
:1006D00051E4C301B2010E94C2072B013C010E94F8
:1006E000DC064B01B12CA12C4AE0C501B4010E94EB
:1006F0008702E80EF91EC501B4010E940B079B0199
:10070000AC01C301B2010E94F80520E030E040E2F4
:1007100051E40E94C2070E94DC0690E080E04AE0BB
:100720000E948702E80EF91E4FCF1F920F920FB65C
:100730000F9211242F933F938F939F93AF93BF9367
:1007400080916F0190917001A0917101B09172013F
:1007500030916E0123E0230F2D3758F50196A11D2E
:10076000B11D20936E0180936F0190937001A0934F
:100770007101B09372018091730190917401A09105
:100780007501B09176010196A11DB11D8093730191
:1007900090937401A0937501B0937601BF91AF91CE
:1007A0009F918F913F912F910F900FBE0F901F90AF
:1007B000189526E8230F0296A11DB11DD2CF1F92D6
:1007C0000F920FB60F9211242F933F934F935F9385
:1007D0006F937F938F939F93AF93BF93EF93FF9309
:1007E00087E791E00E94EB01FF91EF91BF91AF91FC
:1007F0009F918F917F916F915F914F913F912F9139
:100800000F900FBE0F901F9018951F920F920FB66A
:100810000F9211242F938F939F93EF93FF93E09167
:100820008701F09188018081E0918D01F0918E0126
:1008300082FD1BC09081809190018F5F8F7320910A
:100840009101821741F0E0919001F0E0E958FE4FEC
:10085000958F80939001FF91EF919F918F912F91B0
:100860000F900FBE0F901F9018958081F4CF789451
:1008700084B5826084BD84B5816084BD85B58260A5
:1008800085BD85B5816085BD80916E008160809356
:100890006E001092810080918100826080938100BF
:1008A00080918100816080938100809180008160CF
:1008B000809380008091B10084608093B10080912A
:1008C000B00081608093B00080917A008460809352
:1008D0007A0080917A00826080937A0080917A0019
:1008E000816080937A0080917A00806880937A009A
:1008F0001092C100E0918701F091880182E080832D
:10090000E0918301F09184011082E0918501F091E2
:1009100086018FEC808310928F01E0918B01F09122
:100920008C0186E08083E0918901F0918A018081C9
:1009300080618083E0918901F0918A0180818860E3
:100940008083E0918901F0918A01808180688083B1
:10095000E0918901F0918A0180818F7D808361E03F
:1009600082E00E94CF0060E082E10E94CF0060E060
:100970008EE00E94CF000BE811E0C0E0D0E081E201
:1009800091E00E947A0282E10E940001811592406A
:100990000CF0BCC0109266011092670110926801C1
:1009A0001092690184E6E82EF12C8EE00E9400018D
:1009B000BC01990F880B990B0E940D0720E030E0D5
:1009C00040EA50E40E94C20720E030EC4FE754E4D4
:1009D0000E946A0623E13FE849E151E40E94C20710
:1009E0002BEF3FEF4FEB51E40E94F805609362015B
:1009F00070936301809364019093650187E291E0B5
:100A00000E947A0260916201709163018091640199
:100A1000909165010E94CB028090620190906301E9
:100A2000A0906401B090650120916601309167014A
:100A30004091680150916901C501B4010E94BD0750
:100A4000181644F48092660190926701A0926801A2
:100A5000B0926901C8010197F1F781E0E81AF10845
:100A600009F0A3CF8AE391E00E947A0260916601C7
:100A70007091670180916801909169010E94CB0299
:100A800023EF34E045EB5FE360916601709167010D
:100A900080916801909169010E946A0660936201E9
:100AA00070936301809364019093650160936A0180
:100AB00070936B0180936C0190936D0121E73DE38E
:100AC00042E651E40E94BD071816F4F481E00E944A
:100AD000870088E491E00E947A0260916A01709137
:100AE0006B0180916C0190916D010E94CB020E947C
:100AF0003701209709F443CF0E94D701882309F4D6
:100B00003ECF0E9400003BCF80E0E1CF8EE00E940C
:100B10000001BC01990F880B990B0E940D0720E082
:100B200030E040EA50E40E94C20720E030EC4FE79A
:100B300054E40E946A0623E13FE849E151E40E943F
:100B4000C2072BEF3FEF4FEB51E40E94F8056B011A
:100B50007C01C0926A01D0926B01E0926C01F0922C
:100B60006D0120E030E040EA51E40E94BD07181614
:100B700054F020E030E040EA51ECC701B6010E9499
:100B8000650687FF06C081E00E94870085E591E049
:100B9000A2CF80E0F9CFE7E7F1E01382128288EE7E
:100BA00093E0A0E0B0E084839583A683B78384E0DC
:100BB00091E09183808385EC90E09587848784EC35
:100BC00090E09787868780EC90E0918B808B81EC1A
:100BD00090E0938B828B82EC90E0958B848B86ECFB
:100BE00090E0978B868B118E128E138E148E089543
:100BF0005058BB27AA270E9410060C9483070E9416
:100C0000750738F00E947C0720F039F49F3F19F4F3
:100C100026F40C9472070EF4E095E7FB0C946C0735
:100C2000E92F0E94940758F3BA17620773078407E5
:100C3000950720F079F4A6F50C94B6070EF4E0952C
:100C40000B2EBA2FA02D0B01B90190010C01CA0186
:100C5000A0011124FF27591B99F0593F50F4503E31
:100C600068F11A16F040A22F232F342F4427585F23
:100C7000F3CF469537952795A795F0405395C9F73B
:100C80007EF41F16BA0B620B730B840BBAF09150F3
:100C9000A1F0FF0FBB1F661F771F881FC2F70EC092
:100CA000BA0F621F731F841F48F487957795679565
:100CB000B795F7959E3F08F0B0CF9395880F08F051
:100CC0009927EE0F9795879508950E94480708F495
:100CD00081E008950E947E060C9483070E947C07A1
:100CE00058F00E94750740F029F45F3F29F00C94FA
:100CF0006C0751110C94B7070C9472070E9494076B
:100D000068F39923B1F3552391F3951B550BBB273A
:100D1000AA2762177307840738F09F5F5F4F220F7F
:100D2000331F441FAA1FA9F335D00E2E3AF0E0E876
:100D300032D091505040E695001CCAF72BD0FE2FC0
:100D400029D0660F771F881FBB1F26173707480754
:100D5000AB07B0E809F0BB0B802DBF01FF2793580C
:100D60005F4F3AF09E3F510578F00C946C070C945D
:100D7000B7075F3FE4F3983ED4F386957795679580
:100D8000B795F7959F5FC9F7880F911D9695879541
:100D900097F90895E1E0660F771F881FBB1F621760
:100DA00073078407BA0720F0621B730B840BBA0B1E
:100DB000EE1F88F7E09508950E949C0788F09F57E2
:100DC00098F0B92F9927B751B0F0E1F0660F771F6F
:100DD000881F991F1AF0BA95C9F714C0B13091F065
:100DE0000E94B607B1E008950C94B607672F782FDC
:100DF0008827B85F39F0B93FCCF38695779567952A
:100E0000B395D9F73EF490958095709561957F4F95
:100E10008F4F9F4F0895E89409C097FB3EF490953B
:100E20008095709561957F4F8F4F9F4F9923A9F0C3
:100E3000F92F96E9BB279395F69587957795679552
:100E4000B795F111F8CFFAF4BB0F11F460FF1BC096
:100E50006F5F7F4F8F4F9F4F16C0882311F096E929
:100E600011C0772321F09EE8872F762F05C06623D7
:100E700071F096E8862F70E060E02AF09A95660F90
:100E8000771F881FDAF7880F9695879597F9089549
:100E9000990F0008550FAA0BE0E8FEEF161617068B
:100EA000E807F907C0F012161306E407F50798F0F3
:100EB000621B730B840B950B39F40A2661F0232B0C
:100EC000242B252B21F408950A2609F4A140A69588
:100ED0008FEF811D811D089597F99F6780E870E06D
:100EE00060E008959FEF80EC089500240A941616A0
:100EF000170618060906089500240A941216130608
:100F0000140605060895092E0394000C11F4882395
:100F100052F0BB0F40F4BF2B11F460FF04C06F5FB1
:100F20007F4F8F4F9F4F089557FD9058440F551F87
:100F300059F05F3F71F04795880F97FB991F61F05B
:100F40009F3F79F087950895121613061406551FD2
:100F5000F2CF4695F1DF08C0161617061806991F3E
:100F6000F1CF86957105610508940895E894BB2733
:100F700066277727CB0197F908950E94480708F460
:100F80008FEF08950E94D5070C9483070E94750780
:100F900038F00E947C0720F0952311F00C946C0728
:100FA0000C94720711240C94B7070E94940770F3F5
:100FB000959FC1F3950F50E0551F629FF001729FFE
:100FC000BB27F00DB11D639FAA27F00DB11DAA1F0D
:100FD000649F6627B00DA11D661F829F2227B00D5A
:100FE000A11D621F739FB00DA11D621F839FA00DE5
:100FF000611D221F749F3327A00D611D231F849F35
:10100000600D211D822F762F6A2F11249F5750408B
:101010009AF0F1F088234AF0EE0FFF1FBB1F661F06
:10102000771F881F91505040A9F79E3F510580F0CF
:101030000C946C070C94B7075F3FE4F3983ED4F32D
:10104000869577956795B795F795E7959F5FC1F773
:10105000FE2B880F911D9695879597F908950E940C
:101060004807880B990B0895A1E21A2EAA1BBB1BF7
:10107000FD010DC0AA1FBB1FEE1FFF1FA217B30764
:10108000E407F50720F0A21BB30BE40BF50B661F7A
:10109000771F881F991F1A9469F76095709580953E
:1010A00090959B01AC01BD01CF010895EE0FFF1F8C
:1010B0000590F491E02D0994F894FFCF0000000012
:1010C0000D026D019A015A02CB01A901BD016E61A9
:1010D0006E00696E66006F7666000D0A004C6F6FD9
:1010E000700A00566F6C746167652061646A75737D
:1010F0007465643A2000566F6C74616765206D6199
:10110000783A2000566F6C746167652041433A203D
:0E11100000566F6C746167652044433A2000FE
:107E0000112484B714BE81FFF0D085E080938100F7
:107E100082E08093C00088E18093C10086E0809377
:107E2000C20080E18093C4008EE0C9D0259A86E02C
:107E300020E33CEF91E0309385002093840096BBD3
:107E4000B09BFECF1D9AA8958150A9F7CC24DD24C4
:107E500088248394B5E0AB2EA1E19A2EF3E0BF2EE7
:107E6000A2D0813461F49FD0082FAFD0023811F036
:107E7000013811F484E001C083E08DD089C08234E0
:107E800011F484E103C0853419F485E0A6D080C0E4
:107E9000853579F488D0E82EFF2485D0082F10E0AE
:107EA000102F00270E291F29000F111F8ED06801E7
:107EB0006FC0863521F484E090D080E0DECF843638
:107EC00009F040C070D06FD0082F6DD080E0C81688
:107ED00080E7D80618F4F601B7BEE895C0E0D1E017
:107EE00062D089930C17E1F7F0E0CF16F0E7DF06D8
:107EF00018F0F601B7BEE89568D007B600FCFDCFD4
:107F0000A601A0E0B1E02C9130E011968C91119780
:107F100090E0982F8827822B932B1296FA010C0160
:107F200087BEE89511244E5F5F4FF1E0A038BF0790
:107F300051F7F601A7BEE89507B600FCFDCF97BE46
:107F4000E89526C08437B1F42ED02DD0F82E2BD052
:107F50003CD0F601EF2C8F010F5F1F4F84911BD097
:107F6000EA94F801C1F70894C11CD11CFA94CF0C13
:107F7000D11C0EC0853739F428D08EE10CD085E9AC
:107F80000AD08FE07ACF813511F488E018D01DD067
:107F900080E101D065CF982F8091C00085FFFCCF94
:107FA0009093C60008958091C00087FFFCCF809118
:107FB000C00084FD01C0A8958091C6000895E0E648
:107FC000F0E098E1908380830895EDDF803219F02E
:107FD00088E0F5DFFFCF84E1DECF1F93182FE3DFCA
:107FE0001150E9F7F2DF1F91089580E0E8DFEE27F6
:047FF000FF270994CA
:027FFE00040479
:00000001FF
