:020000040000FA
:100000000C945D000C9485000C9485000C94850084
:100010000C9485000C9485000C9485000C9485004C
:100020000C9485000C9485000C9485000C9485003C
:100030000C9485000C9485000C9485000C9485002C
:100040000C94ED020C9485000C945D030C94370322
:100050000C9485000C9485000C9485000C9485000C
:100060000C9485000C9485000000000024002700FB
:100070002A0000000000250028002B0004040404CE
:100080000404040402020202020203030303030342
:10009000010204081020408001020408102001021F
:1000A00004081020000000080002010000030407FB
:1000B0000000000000000000A50411241FBECFEFC7
:1000C000D8E0DEBFCDBF11E0A0E0B1E0E4ECFDE0A0
:1000D00002C005900D92A231B107D9F721E0A2E14B
:1000E000B1E001C01D92A03CB207E1F710E0CDE500
:1000F000D0E004C02197FE010E94DA06CC35D1077A
:10010000C9F70E948F030C94E0060C94000090E065
:10011000FC01EC55FF4F2491FC01E057FF4F349157
:10012000FC01E458FF4FE491EE23C9F0222339F09B
:10013000233001F1A8F4213019F1223029F1F0E047
:10014000EE0FFF1FEE58FF4FA591B4918FB7F894B3
:10015000EC91611126C030953E233C938FBF0895EA
:100160002730A9F02830C9F0243049F78091800069
:100170008F7D03C0809180008F7780938000DFCFD8
:1001800084B58F7784BDDBCF84B58F7DFBCF809125
:10019000B0008F778093B000D2CF8091B0008F7D78
:1001A000F9CF3E2BDACFCF93DF9390E0FC01E057FD
:1001B000FF4F249184589F4FFC0184918823D1F0F4
:1001C00090E0880F991FFC01E859FF4FA591B49169
:1001D000FC01EE58FF4FC591D49161110EC09FB73D
:1001E000F8948C91E22FE0958E238C932881E22362
:1001F000E8839FBFDF91CF9108958FB7F894EC917A
:10020000E22BEC938FBFF6CF8E3008F08E508770C4
:10021000806480937C0080917A00806480937A006F
:1002200080917A0086FDFCCF8091780090917900D2
:100230000895AF92BF92CF92DF92EF92FF920F9309
:100240001F93CF93DF936C017B018B01040F151F6C
:10025000EB015E01AE18BF08C017D10759F06991D4
:10026000D601ED91FC910190F081E02DC601099538
:10027000892B79F7C501DF91CF911F910F91FF90E5
:10028000EF90DF90CF90BF90AF900895FC01538D19
:10029000448D252F30E0842F90E0821B930B541760
:1002A00010F0CF96089501970895FC01918D828DED
:1002B000981761F0A28DAE0FBF2FB11D5D968C9186
:1002C000928D9F5F9F73928F90E008958FEF9FEFC5
:1002D0000895FC01918D828D981731F0828DE80F81
:1002E000F11D858D90E008958FEF9FEF0895FC013B
:1002F000918D228D892F90E0805C9F4F821B910908
:100300008F739927089586E191E00E94770121E09B
:10031000892B09F420E0822F089580E090E0892B5A
:1003200029F00E94830181110C9400000895FC01C2
:10033000A48DA80FB92FB11DA35ABF4F2C91848D46
:1003400090E001968F739927848FA689B7892C93A3
:10035000A089B1898C91837080648C93938D848DF6
:10036000981306C00288F389E02D80818F7D8083F9
:100370000895EF92FF920F931F93CF93DF93EC01B9
:1003800081E0888F9B8D8C8D98131AC0E889F9893C
:10039000808185FF15C09FB7F894EE89FF8960833F
:1003A000E889F98980818370806480839FBF81E0C0
:1003B00090E0DF91CF911F910F91FF90EF90089502
:1003C000F62E0B8D10E00F5F1F4F0F731127E02EDD
:1003D0008C8D8E110CC00FB607FCFACFE889F98915
:1003E000808185FFF5CFCE010E949701F1CFEB8D83
:1003F000EC0FFD2FF11DE35AFF4FF0829FB7F894E9
:100400000B8FEA89FB8980818062CFCFCF93DF9306
:10041000EC01888D8823B9F0AA89BB89E889F9891C
:100420008C9185FD03C0808186FD0DC00FB607FC51
:10043000F7CF8C9185FFF2CF808185FFEDCFCE0184
:100440000E949701E9CFDF91CF910895CF92DF927B
:10045000EF92FF92CF936B017C01C42F20E030E03C
:1004600040EA51E40E946806181654F020E030E09B
:1004700040EA51ECC701B6010E943F0560E087FDEC
:1004800061E08C2FCF91FF90EF90DF90CF900C9494
:1004900087000E940401BC01990F880B990B0E94F0
:1004A000B80520E030E040EA50E40E946D0620E00C
:1004B00030EC4FE754E40E94440523E13FE849E172
:1004C00051E40E946D062BEF3FEF4FEB51E40E9489
:1004D000D2046093B3017093B4018093B5019093FB
:1004E000B6010895BF92CF92DF92EF92FF920F93E1
:1004F0001F93CF93DF93B82E109212011092130125
:100500001092140110921501C4E6D0E00BE811E03E
:100510008B2D0E940401BC01990F880B990B0E943E
:10052000B80520E030E040EA50E40E946D0620E08B
:1005300030EC4FE754E40E94440523E13FE849E1F1
:1005400051E40E946D062BEF3FEF4FEB51E40E9408
:10055000D2046B017C012091120130911301409172
:100560001401509115010E946806181644F4C092B7
:100570001201D0921301E0921401F0921501C8010A
:100580000197F1F7219709F0C3CF23EF34E045EB52
:100590005FE36091120170911301809114019091B9
:1005A00015010E944405DF91CF911F910F91FF909B
:1005B000EF90DF90CF90BF900895CF93C42F21E7A5
:1005C0003DE342E651E40E94680661E018160CF033
:1005D00060E08C2FCF910C9487001F920F920FB682
:1005E0000F9211242F933F938F939F93AF93BF93B9
:1005F0008091BC019091BD01A091BE01B091BF015D
:100600003091BB0123E0230F2D3758F50196A11D32
:10061000B11D2093BB018093BC019093BD01A093B9
:10062000BE01B093BF018091B7019091B801A09134
:10063000B901B091BA010196A11DB11D8093B70116
:100640009093B801A093B901B093BA01BF91AF9153
:100650009F918F913F912F910F900FBE0F901F9000
:10066000189526E8230F0296A11DB11DD2CF1F9227
:100670000F920FB60F9211242F933F934F935F93D6
:100680006F937F938F939F93AF93BF93EF93FF935A
:1006900086E191E00E949701FF91EF91BF91AF91A8
:1006A0009F918F917F916F915F914F913F912F918A
:1006B0000F900FBE0F901F9018951F920F920FB6BC
:1006C0000F9211242F938F939F93EF93FF93E091B9
:1006D0002601F09127018081E0912C01F0912D01FC
:1006E00082FD1BC0908180912F018F5F8F732091BD
:1006F0003001821741F0E0912F01F0E0EA5EFE4FF9
:10070000958F80932F01FF91EF919F918F912F9162
:100710000F900FBE0F901F9018958081F4CF7894A2
:1007200084B5826084BD84B5816084BD85B58260F6
:1007300085BD85B5816085BD80916E0081608093A7
:100740006E00109281008091810082608093810010
:100750008091810081608093810080918000816020
:10076000809380008091B10084608093B10080917B
:10077000B00081608093B00080917A0084608093A3
:100780007A0080917A00826080937A0080917A006A
:10079000816080937A0080917A00806880937A00EB
:1007A0001092C100E0912601F091270182E0808340
:1007B000E0912201F09123011082E0912401F09157
:1007C00025018FEC808310922E01E0912A01F09197
:1007D0002B0186E08083E0912801F091290180813E
:1007E00080618083E0912801F091290180818860F7
:1007F0008083E0912801F0912901808180688083C5
:10080000E0912801F091290180818F7D808361E052
:1008100082E00E94D30061E083E00E94D30061E0A7
:1008200084E00E94D30061E085E00E94D30060E094
:1008300082E10E94D30060E08EE00E94D30060E07D
:100840008FE00E94D30060E080E10E94D30060E06E
:1008500081E10E94D300C0E0D0E082E10E94040167
:10086000811592408CF58EE090E00E94720242E089
:1008700050E00E94DD028FE090E00E94720243E0AF
:1008800050E00E94DD0280E190E00E94720244E0AC
:1008900050E00E94DD0281E190E00E9472026093CC
:1008A000B3017093B4018093B5019093B60145E014
:1008B00050E00E94DD02209781F20E94830188238C
:1008C00061F20E940000C9CF8EE090E00E944902D0
:1008D0006091B3017091B4018091B5019091B6011E
:1008E00042E050E00E9426028FE090E00E94490220
:1008F0006091B3017091B4018091B5019091B601FE
:1009000043E050E00E94260280E190E00E9449020C
:100910006091B3017091B4018091B5019091B601DD
:1009200044E050E00E94260281E190E00E944902EA
:100930006091B3017091B4018091B5019091B601BD
:1009400045E050E00E942602B6CFE6E1F1E01382D6
:10095000128288EE93E0A0E0B0E084839583A683C2
:10096000B78384E091E09183808385EC90E0958764
:10097000848784EC90E09787868780EC90E0918B69
:10098000808B81EC90E0938B828B82EC90E0958B56
:10099000848B86EC90E0978B868B118E128E138E53
:1009A000148E08955058BB27AA270E94EA040C947D
:1009B0002E060E94200638F00E94270620F039F407
:1009C0009F3F19F426F40C941D060EF4E095E7FB06
:1009D0000C941706E92F0E943F0658F3BA176207D6
:1009E00073078407950720F079F4A6F50C94610647
:1009F0000EF4E0950B2EBA2FA02D0B01B90190013A
:100A00000C01CA01A0011124FF27591B99F0593F7D
:100A100050F4503E68F11A16F040A22F232F342FC5
:100A20004427585FF3CF469537952795A795F04013
:100A30005395C9F77EF41F16BA0B620B730B840B28
:100A4000BAF09150A1F0FF0FBB1F661F771F881FE0
:100A5000C2F70EC0BA0F621F731F841F48F4879538
:100A600077956795B795F7959E3F08F0B0CF93952A
:100A7000880F08F09927EE0F9795879508950E94A3
:100A8000F30508F481E008950E9458050C942E06A1
:100A90000E94270658F00E94200640F029F45F3F8C
:100AA00029F00C94170651110C9462060C941D0643
:100AB0000E943F0668F39923B1F3552391F3951BE8
:100AC000550BBB27AA2762177307840738F09F5F6F
:100AD0005F4F220F331F441FAA1FA9F335D00E2EDC
:100AE0003AF0E0E832D091505040E695001CCAF749
:100AF0002BD0FE2F29D0660F771F881FBB1F26170C
:100B000037074807AB07B0E809F0BB0B802DBF01E2
:100B1000FF2793585F4F3AF09E3F510578F00C94B1
:100B200017060C9462065F3FE4F3983ED4F3869573
:100B300077956795B795F7959F5FC9F7880F911DD2
:100B40009695879597F90895E1E0660F771F881FBE
:100B5000BB1F621773078407BA0720F0621B730B71
:100B6000840BBA0BEE1F88F7E0950895E89409C04E
:100B700097FB3EF490958095709561957F4F8F4FD0
:100B80009F4F9923A9F0F92F96E9BB279395F695E6
:100B9000879577956795B795F111F8CFFAF4BB0F64
:100BA00011F460FF1BC06F5F7F4F8F4F9F4F16C0C8
:100BB000882311F096E911C0772321F09EE8872F52
:100BC000762F05C0662371F096E8862F70E060E00E
:100BD0002AF09A95660F771F881FDAF7880F969587
:100BE000879597F90895990F0008550FAA0BE0E82B
:100BF000FEEF16161706E807F907C0F012161306DF
:100C0000E407F50798F0621B730B840B950B39F41E
:100C10000A2661F0232B242B252B21F408950A2684
:100C200009F4A140A6958FEF811D811D089597F9C4
:100C30009F6780E870E060E008959FEF80EC089582
:100C400000240A94161617061806090608950024AB
:100C50000A9412161306140605060895092E039425
:100C6000000C11F4882352F0BB0F40F4BF2B11F499
:100C700060FF04C06F5F7F4F8F4F9F4F089557FDF8
:100C80009058440F551F59F05F3F71F04795880FFA
:100C900097FB991F61F09F3F79F087950895121691
:100CA00013061406551FF2CF4695F1DF08C016163D
:100CB00017061806991FF1CF8695710561050894EE
:100CC0000895E894BB2766277727CB0197F9089505
:100CD0000E94F30508F48FEF08950E9480060C949B
:100CE0002E060E94200638F00E94270620F0952349
:100CF00011F00C9417060C941D0611240C94620636
:100D00000E943F0670F3959FC1F3950F50E0551F69
:100D1000629FF001729FBB27F00DB11D639FAA2750
:100D2000F00DB11DAA1F649F6627B00DA11D661F9F
:100D3000829F2227B00DA11D621F739FB00DA11DC0
:100D4000621F839FA00D611D221F749F3327A00D7A
:100D5000611D231F849F600D211D822F762F6A2F16
:100D600011249F5750409AF0F1F088234AF0EE0F7B
:100D7000FF1FBB1F661F771F881F91505040A9F7A8
:100D80009E3F510580F00C9417060C9462065F3F5D
:100D9000E4F3983ED4F3869577956795B795F795E4
:100DA000E7959F5FC1F7FE2B880F911D969587955C
:100DB00097F90895EE0FFF1F0590F491E02D099427
:100DC000F894FFCF00000000B901190146010602A6
:060DD000770155016901E5
:107E0000112484B714BE81FFF0D085E080938100F7
:107E100082E08093C00088E18093C10086E0809377
:107E2000C20080E18093C4008EE0C9D0259A86E02C
:107E300020E33CEF91E0309385002093840096BBD3
:107E4000B09BFECF1D9AA8958150A9F7CC24DD24C4
:107E500088248394B5E0AB2EA1E19A2EF3E0BF2EE7
:107E6000A2D0813461F49FD0082FAFD0023811F036
:107E7000013811F484E001C083E08DD089C08234E0
:107E800011F484E103C0853419F485E0A6D080C0E4
:107E9000853579F488D0E82EFF2485D0082F10E0AE
:107EA000102F00270E291F29000F111F8ED06801E7
:107EB0006FC0863521F484E090D080E0DECF843638
:107EC00009F040C070D06FD0082F6DD080E0C81688
:107ED00080E7D80618F4F601B7BEE895C0E0D1E017
:107EE00062D089930C17E1F7F0E0CF16F0E7DF06D8
:107EF00018F0F601B7BEE89568D007B600FCFDCFD4
:107F0000A601A0E0B1E02C9130E011968C91119780
:107F100090E0982F8827822B932B1296FA010C0160
:107F200087BEE89511244E5F5F4FF1E0A038BF0790
:107F300051F7F601A7BEE89507B600FCFDCF97BE46
:107F4000E89526C08437B1F42ED02DD0F82E2BD052
:107F50003CD0F601EF2C8F010F5F1F4F84911BD097
:107F6000EA94F801C1F70894C11CD11CFA94CF0C13
:107F7000D11C0EC0853739F428D08EE10CD085E9AC
:107F80000AD08FE07ACF813511F488E018D01DD067
:107F900080E101D065CF982F8091C00085FFFCCF94
:107FA0009093C60008958091C00087FFFCCF809118
:107FB000C00084FD01C0A8958091C6000895E0E648
:107FC000F0E098E1908380830895EDDF803219F02E
:107FD00088E0F5DFFFCF84E1DECF1F93182FE3DFCA
:107FE0001150E9F7F2DF1F91089580E0E8DFEE27F6
:047FF000FF270994CA
:027FFE00040479
:00000001FF
